:020000040800F2
:1000000080390020C9590008ED560008B55900088C
:10001000B5590008B5590008B5590008000000009E
:10002000000000000000000000000000C55A0008A9
:10003000B559000800000000915A0008596D0008E9
:10004000215C0008215C0008215C0008215C00089C
:10005000215C0008215C0008215C0008215C00088C
:10006000215C0008215C0008215C0008215C00087C
:10007000215C0008215C0008215C0008215C00086C
:10008000215C0008215C0008215C0008215C00085C
:10009000215C0008215C0008215C0008215C00084C
:1000A000215C0008215C0008215C0008215C00083C
:1000B000215C0008215C0008215C0008215C00082C
:1000C000215C0008215C0008215C0008215C00081C
:1000D000215C0008215C0008215C0008215C00080C
:0C00E000215C0008215C0008215C000885
:0400EC00FFFFFFFF14
:1000F0007BB972B90029BEBF00204FF0004106E075
:1001000008BF00281CBF6FF000414FF0FF3000F027
:1001100057B8ADF1080C6DE904CE002909DB002BBE
:100120001ADB00F04FF8DDF804E0DDE9022304B04B
:100130007047404261EB4101002B1BDB00F042F8AD
:10014000DDF804E0DDE9022304B0404261EB410147
:10015000524263EB43037047524263EB430300F0A8
:1001600031F8DDF804E0DDE9022304B0404261EB40
:1001700041017047524263EB430300F023F8DDF87E
:1001800004E0DDE9022304B0524263EB430370470D
:1001900053B94AB9002908BF00281CBF4FF0FF31EE
:1001A0004FF0FF3000F00CB8ADF1080C6DE904CE53
:1001B00000F008F8DDF804E0DDE9022304B0704740
:1001C000704700BF2DE9F04786468C460846154625
:1001D00074461946089E002B40F0C2808542B2FA50
:1001E00082F245D94AB1C2F1200300FA02FC2EFA8C
:1001F00003F3954043EA0C0C94404FEA154EBCFBC8
:10020000FEF8A8B20EFB18CC08FB00F9230C43EA59
:100210000C43994528D9EB1808F1FF3704D29945CA
:1002200002D9A8F102072B44A3EB0903B3FBFEFCA0
:100230000EFB1C330CFB00F0A4B244EA0344A042C2
:1002400014D92C190CF1FF3304D2A04202D9ACF11D
:1002500002032C44241A43EA07401EB10023D44071
:1002600034607360BDE8F0874746DDE76346F1E739
:1002700092BB0121431B4FEA154EB3FBFEFCAFB20C
:100280000EFB1C330CFB07F8200C40EA0343984597
:1002900062D9EB180CF1FF3004D2984502D9ACF1C9
:1002A00002002B44A3EB0803B3FBFEFC0EFB1C3344
:1002B0000CFB07F7A4B244EA0344A7424ED92C1919
:1002C0000CF1FF3304D2A74202D9ACF102032C4453
:1002D000E41B43EA0040C0E7C2F12003954020FA46
:1002E00003F12EFA03F34FEA154EB1FBFEFC9040EA
:1002F0000343AFB20EFB1C100CFB07F8190C41EACC
:100300000041884504FA02F422D969180CF1FF3043
:1003100004D2884502D9ACF102002944A1EB0801BE
:10032000B1FBFEFC0EFB1C110CFB07F79BB243EA72
:1003300001439F420ED9EB180CF1FF3104D29F42CA
:1003400002D9ACF102012B44DB1B41EA004192E7E8
:100350006046E3E76146F7E76046A3E76346B7E731
:10036000834206D916B9002108467BE7C6E900E0BA
:10037000F9E7B3FA83F78FB9834201D3724508D8FE
:10038000BEEB020460EB030301209C461EB9002172
:1003900068E73846FAE7C6E9004CF8E7C7F1200CF1
:1003A000BB4022FA0CF41C434FEA144920FA0CF328
:1003B000B3FBF9F8B8402EFA0CF101430EFA07F539
:1003C00009FB18301FFA84FE08FB0EFA0B0C43EAF7
:1003D00000439A4502FA07F240D9E31808F1FF30CA
:1003E00004D29A4502D9A8F102002344A3EB0A03E0
:1003F000B3FBF9F809FB183308FB0EFE89B241EA9A
:1004000003418E452CD9611808F1FF3304D28E4583
:1004100002D9A8F10203214443EA0040A0FB02985C
:10042000A1EB0E014145CE46434602D306D14D45D0
:1004300004D2B9EB020E68EB04030138002EA6D0FB
:10044000B5EB0E0261EB030101FA0CFC22FA07F393
:100450004CEA0303F940C6E9003198E74046C5E796
:100460004346D9E710F8012B11F8013B012A28BFB8
:100470009A42F7D0D01A7047034611F8012B03F8BF
:10048000012B002AF9D17047034613F8012B002AEB
:10049000FBD1181A013870472DE9F04F0446EBB034
:1004A00008460D461746FFF7EFFF431EBE2B06D941
:1004B0002046B2496BB0BDE8F04F09F055BB294664
:1004C000421C3AA80BF02BFE10AEAD493AA808F03A
:1004D000C9FC4FF000083546DFF8A49210B1B8F11E
:1004E0000E0F08D144F2010626FA08F616F00106AE
:1004F0000AD0A24967E046F8040B4946002008F1FB
:10050000010808F0AFFCE9E79E4BD5F800909E4942
:100510004846C4F83835FFF7A5FF002849D1B8F19F
:10052000020F31D1994F0DF11C0C0FCFACE80F0029
:100530000FCFACE80F0057F8043B0DF17808CCF86A
:100540000030C4460FCFACE80F000FCFACE80F006F
:100550003B686F68CCF8003007AD384655F8041B8F
:10056000FFF780FF60B9204658F8261009F09DFA81
:10057000E0B1204609F0A3FA00206BB0BDE8F08F8F
:100580000136092EE9D1B4E7B8F1010FB1D1204607
:1005900009F08BFA08B17E49EBE705227D49D4F8D2
:1005A00034050BF0DFFC0028E6D07949C4F8341597
:1005B000E2E7B8F1010F0AD148467749FFF752FF49
:1005C0000028D9D07549204609F0CEFAD5E7702227
:1005D00031461EA80BF0B1FD20AB4FF0FF32029365
:1005E0000023CDE9002301220023686801F0ECFF1D
:1005F0000028E7D048466A49FFF734FF98B9B8F1B8
:10060000020F10D1204609F050FA18B12046654972
:1006100009F055FA209BC4F820340023C4F8243490
:10062000C4F82834A8E7D4F82034002BCAD0DDE978
:100630002012002A08BF9942C4D148465A49FFF700
:1006400011FF824678BBB8F1030F2CD122AB4FF0DB
:10065000FF3202930023CDE9002301220023A86882
:1006600001F0B2FF38B1DDE92213D4F82424534558
:1006700008BF914201D04D49A5E794F8DB34C4F896
:100680002C74002B3FF478AF94F83035022B7FF4B4
:1006900073AF7822D4F8C83402FB0343C3F84C721A
:1006A000C4F8E07168E748464149FFF7DBFE82463F
:1006B000002840F08780B8F1040F40F0838022AB1F
:1006C0004FF0FF3202930023CDE9002301220023E3
:1006D000A86801F079FF0028CDD0DDE92223D4F805
:1006E000281491427AEB0303C5DA204609F0DDF9BC
:1006F00008B1304967E794F8DC340BB92E4962E75A
:100700003946204601F0DCFF064608B101465AE7AB
:1007100024AB4FF4FA7202930023CDE900230122A7
:100720000023E86801F050FF08B924494BE7229BF9
:10073000C4F83074C4F82834C4F82434249BC4F8B2
:100740002C74A4F85838D4F86833A4F85A68C4F85C
:100750003C38D4F86C33C4F85C68C4F84038D4F83A
:100760007033A4F86068C4F844380123A4F86638EC
:1007700084F83035124BC4F83435FDE677C90008EB
:100780007BCF00087DCF000880CF000810C500088F
:100790006CCF000885CF00088BCF000892CF0008EF
:1007A0009ACF0008A0CF000872C90008B0CF000897
:1007B000B4CF0008B9CF00089CCD000869CE00086E
:1007C000BECF00084846AB49FFF74CFE82460028E2
:1007D00040F04281B8F10B0F40F03E8194F866384A
:1007E0000BB9A549EFE622AB4FF0FF32029300238D
:1007F000CDE9002301220023A86801F0E5FE0028CE
:10080000EFD0DDE92213D4F82424534508BF9142E8
:10081000E7D124AB40F2F31202930023CDE9002389
:1008200000220023E86801F0CFFE0028D9D0DDE9DE
:100830002412B4F85A38524508BF9942D1D1B4F8BD
:1008400058289A42CDD9B4F860381F2BC9D818223D
:10085000514607A80BF071FC0DF14C090DF11C0875
:1008600026AF04F55C7504F55F7B0023834A02978D
:10087000CDE900234FF0FF33814A59F8040FBA46FF
:1008800001F0A2FE08B97F499DE655F8043FDAE978
:100890000020991840EBE370D5F8C834DFF8DCC1CC
:1008A000CA1ADFF8E4E160EBE37311EB0C0C40F1E2
:1008B0000000E6454FF0000C7CEB000C07F1080748
:1008C000E1D3002B02DA524263EB43030020DFF84E
:1008D000BCC1944570EB030CD5DB96429841B8BF80
:1008E0001646AB4548F8041BBFD1002E3FF41DAFA0
:1008F000079AD4F83C389A427FF417AF4FF47A72D3
:10090000204607A901F05CFF00283FF40EAF2CAB96
:100910004FF4C862029300231798CDE900233222D6
:10092000002301F051FE08B959494CE62EAB029361
:100930001898DDE92C23CDE900233222002301F0B1
:1009400043FE0028F0D030AB02931998DDE92C2348
:10095000CDE900233222002301F036FE0028E3D047
:1009600032AB029300234B4A1A98CDE9002332227E
:10097000002301F029FE0028D6D0B4F85A7827B910
:10098000DDE92E32323B1343CED1DDE93052B4F8EB
:1009900058187B1C8B4203D1A5F132031343C3D1FA
:1009A000DDE92E83DDE9329C08FB03F0A8FB08316A
:1009B0006A4301EB4001A5FB05E0B3EB0E0300EB3E
:1009C000420261EB0201002902DA5B4261EB410164
:1009D000A6FB092006FB0C00921840419A42884170
:1009E000A2DBDDF8B0B04A464146584608F0C0FFE9
:1009F0004A4682462946584608F0BAFF8244B24524
:100A000092D81823B4F860C8ADF83050B4F85E58E6
:100A1000ADF82CB0654405F01F0503FB0545ADF8A6
:100A20002E80CDF8289005F23C5507AE0FCE0FC5AD
:100A300096E803000CF1010C013707AB85E80300D1
:100A400003CBA4F860C8A4F85A78C4F83C08C4F8EA
:100A50004018C4F844288FE548460F49FFF702FDC7
:100A6000002857D1B8F1030F54D194F86638BBB9B8
:100A70000A49A8E5CBCF0008CFCF000800093D0008
:100A800000F7C2FFDDCF000800127A0040420F00DD
:100A9000E4CF0008400D0300F1CF0008F4CF0008B8
:100AA00094F86768002EE3D122AB4FF0FF32029337
:100AB0000023CDE9002301220023A86801F084FD72
:100AC0000028D5D0DDE92213D4F82424B34208BF8E
:100AD0009142CDD1B4F85838B4F86028202B28BF03
:100AE00020239A42C4D33946204601F0E9FD01464D
:100AF00000287FF468AD2046C4F83074C4F82C7424
:100B000002F0D6FA00283FF410AEB04B0120C4F832
:100B1000343532E54846AE49FFF7A4FC002837D10A
:100B2000B8F1040F40F0A980AE68AA493046FFF73B
:100B300099FC30B13046A849FFF794FC30B3A7497F
:100B400041E5012624AB012202930023CDE90023D5
:100B500000220023E86801F037FD0028EFD020468E
:100B600008F0A3FF0028EAD194F8DD34002BE6D189
:100B7000DDE924210A4314BF012200220320C4F826
:100B8000D06484F8DE2484F8DC34F6E40226D9E765
:100B900048469349FFF766FC002835D1B8F1040FA9
:100BA0006BD1AF688F493846FFF75CFC60B13846BF
:100BB0008849FFF757FC30B138468749FFF752FCA8
:100BC00000B38949FFE4012624AB012202930023EC
:100BD000CDE9002300220023E86801F0F5FC00289D
:100BE000EFD0204608F061FF0028EAD1DDE9243289
:100BF000134314BF01230023264486F8D43484F819
:100C0000DC04B9E40226DFE748467849FFF72AFC0E
:100C1000002832D1B8F1040F2FD1204608F045FF4B
:100C2000064608B17249CEE422AB012202930023AA
:100C3000CDE9002300220023A86801F0C5FC0028AC
:100C4000F0D024AB4FF4807202930023CDE900234F
:100C500010220023E86801F0B7FC0028E2D0DDE9AB
:100C60002232134314BF0123002384F8A834249BA9
:100C700084F8DC64C4F8AC347EE448465D49FFF790
:100C8000F1FB002800F0CA8048465B49FFF7EAFB09
:100C9000002800F0D08048465849FFF7E3FB0028C1
:100CA00000F0D68048465649FFF7DCFB002800F0EC
:100CB0003B8148465349FFF7D5FB8246002800F0A8
:100CC000188348465049FFF7CDFB814600287FF442
:100CD00010ACB8F1070F7FF40CAC22AB4FF0FF3231
:100CE00002930023CDE9002301220023A86801F02C
:100CF0006BFC00283FF4BFACDDE92223D4F82814B4
:100D0000914279EB0303BFF6B6AC204608F0CDFE66
:100D100000287FF4EEAC94F8DC34002B3FF4EEAC0A
:100D20003946204601F0CCFC014600287FF44BAC4C
:100D300012A90DF1900804F55C7B0023334ACDF82D
:100D40000880CDE9002351F8040F4FF0FF33304AFB
:100D5000059101F039FCC146059900283FF493AD97
:100D6000D9E900324FF0000A5BF8040FDFF8A4C0A5
:100D7000C31842EBE072254808F10808181842F140
:100D8000000284457AEB0202FFF47DAD0DF11C09EF
:100D900049F826300136032ECFD12AAB4FF4C86272
:100DA00002930023CDE9002332220023A86901F039
:100DB0000BFC40B14FF47A724946204601F000FD29
:100DC000002840F045831449FFF7FDBB06D000081A
:100DD00013D0000818D000081BD000081ED000084F
:100DE0002CD0000830D0000832D000083FD00008D6
:100DF00046D0000856D000085BD0000860D000083C
:100E000065D000086AD00008AED0000800093D0097
:100E100000F7C2FF00127A0048CE0008204608F012
:100E200044FE00287FF465ACB8F1090F00F058814A
:100E3000A449FFF7C8BB204608F037FE00287FF41E
:100E400058ACB8F1070F00F0C9819F49FFF7BBBB51
:100E5000204608F02AFE00287FF44BACB8F1050FBD
:100E600040F01C820027994E22ABCDE90067029327
:100E7000974A4FF0FF33A86801F0A6FB002800F066
:100E80000D82CDE9006724AB0293914A4FF0FF3306
:100E9000E86801F099FB002800F0008226AB02937D
:100EA00000238C4ACDE9002364220023286901F045
:100EB0008BFB002800F0F281DDE92212D4F8D83350
:100EC00003F5FA63D8178B42904180F2E781D4F89A
:100ED000E033A3F5FA63D8179942824180F2DE81AC
:100EE000DDE92403D4F8DC2302F5FA62D517824247
:100EF0009D4180F2D381D4F8E423A2F5FA62D5179C
:100F0000904273EB050580F2C98142F20F7244F6FC
:100F10001F66821843F10005B24275F1000580F0AA
:100F2000C0816D49FFF74FBB204608F0BEFD002889
:100F30007FF4DFAB4FF4306323FA08F3DB0740F1B3
:100F4000C78122AB4FF4487202930023CDE90023FE
:100F500064220023A86801F037FB002800F0B88164
:100F600024AB4FF4C85202930023CDE9002364223E
:100F70000023E86801F028FB002800F0A981002781
:100F8000564E26ABCDE9006702934FF480720023E2
:100F9000286901F019FB002800F09A81CDE900676B
:100FA00028AB02934FF480720023686901F00CFBB8
:100FB000002800F08D814FF400560027CDE900672E
:100FC0002AAB029320220023A86901F0FDFA002831
:100FD00000F07E81CDE900672CAB02932022002334
:100FE000E86901F0F1FA002800F07281DDE92A03D6
:100FF000DDE926128842934180F26A81DDE92C0303
:10100000DDE928128842934180F26281DDE92423E0
:10101000B8F1080F2BD9CDE900232EA90291322275
:101020000023286A01F0D0FA002800F05181B8F1BD
:101030000B0F1CD130AB4FF4C86202930023CDE9F3
:10104000002364220023686A01F0BEFA002800F041
:101050003F8132AB0293DDE93023CDE90023322218
:101060000023A86A01F0B0FA002800F03181269A26
:10107000229BC4F81024289A2499C4F814242A9A8C
:10108000B8F1080FC4F818242C9AC4F8FC33C4F83B
:101090001C24D4F8CC24C4F8081442F00802C4F884
:1010A000CC2440F218812E9AB8F10B0FC4F80C240E
:1010B00000F01A81C82BC4F8003428BFC823C4F834
:1010C000043486E0AFCE000881D0000820BF0200C3
:1010D000E040FDFFA08601008BD0000840420F00D9
:1010E00022AB02930023A04ACDE900234FF0FF3347
:1010F0009E4AA86801F068FA00283FF499AE24AB34
:10110000029397A3D3E90023CDE900234FF4806233
:101110000023E86801F058FA00283FF489AE002760
:10112000934E26ABCDE9006702934FF48062002313
:10113000286901F049FA00283FF47AAECDE900674A
:1011400028AB02934FF480620023686901F03CFAF7
:1011500000283FF46DAE4FF00308202600270DF164
:1011600054092AADCDE9006702950122002359F800
:10117000040F01F029FA58B1D5E90020531E40F1BF
:10118000FF31134001EA0002134305F1080502D0C4
:101190007849FFF718BAB8F10108E3D1229BC4F8E7
:1011A000F033249BC4F8C0332A9BC4F8CC33269B6D
:1011B000C4F8C4332C9BC4F8D033289BC4F8C8337C
:1011C0002E9BC4F8D433D4F8CC3443F00103C4F8D4
:1011D000CC34002384F8DC34FFF7CEB94FF0020A98
:1011E00000274FF0FF39644EDFF89081CDE90067AA
:1011F0001EAB03EBCA03029342464B4655F82A0046
:1012000001F0E2F910B95E49FFF7DDB90AF1010A10
:10121000BAF1060FEAD12AAB02930023524ACDE974
:10122000002300220023A86901F0CEF998B3DDE97C
:101230002271DDE924030025C21B63EB0103514940
:10124000514E521863F10003964275EB0303FFF40D
:10125000FCADC4F8D873DDE926730593DDF814C03E
:10126000C4F8E003DDE92803C21B63EB0C0352184A
:1012700063F10003964275EB0303FFF4E6AD2A9B8E
:10128000C4F8DC73C4F8F433D4F8CC34C4F8E40301
:1012900043F002039BE73D49FFF795B93C49FFF74F
:1012A00092B9002B024602DA424263EB4303394D06
:1012B00095424FF000029A41FFF633AE269BC4E9F7
:1012C000FA10C4F8F833D4F8CC3443F004037EE7C2
:1012D0003149FFF778B9D4F80C248A4294BFC4F896
:1012E0000C24C4F80C14E5E6309BC4F80034329B9F
:1012F000E5E6B8F1030F7FF4E4AC22AB4FF0FF3228
:1013000002930023CDE9002301220023A86801F005
:101310005BF900283FF4AFA9DDE92253D4F8282473
:10132000AA427AEB0303BFF6A6A9204608F0BDFB4C
:1013300000287FF4DEA93946204601F0C1F90146B4
:1013400000287FF440A9D4F8CC340F2B03D1D4F873
:101350004034013324D11149FFF735B9AFF3008090
:1013600000E1F5050000000080841E00807BE1FFA5
:1013700040420F006FD0000820BF0200E040FDFF98
:1013800079D00008F0D8FFFF305705007FD0000863
:1013900086D000081098020099D00008A0D000085C
:1013A0004FF0FF330122C4F80835002384F8DB2412
:1013B0002246C4F82854C4F82454C4F83074C4F83D
:1013C0002C74C4F81035C4F8F034C4F8EC3484F844
:1013D000DC3484F8A934A4F8AA34C4F8C434C4F8BA
:1013E000C034C4F8B433C4F8B833C4F8BC33C4F858
:1013F000A833C4F8AC33C4F8B03304F5B47182F840
:10140000013282F8003282F8023282F82032C2E9D8
:10141000893378328A42F2D1204601F017F9D4F8A4
:101420008424D4F88034002A02DA5B4262EB420260
:101430001A498B4272F1000202DB1949FFF7C3B867
:101440003B4601220021204601F042FBFFF795B800
:10145000229B4946C4F82834C4F824344FF0FF33A3
:101460002046C4F808352A9A5346C4F83074C4F8A4
:101470002C74C4F810A500F0A1FF022802D109497C
:10148000FFF7A1B894F8DA14074B084A002918BFEF
:101490001346C4F83435FFF770B800BF01000004EC
:1014A000B8CE0008B3D0000853CE000874CF0008AF
:1014B00008B505F017FD05F015FD084B1B68C01AAF
:1014C000B0F5616F08D24823B0FBF3F0BDE80840E7
:1014D000C0F132000AF05FBB08BD00BFF40D002070
:1014E00038B5074B1B7823B1064D441E14F8011F75
:1014F00001B938BDAB6803485B689847F6E700BFA1
:101500006418002048C300081FB500230C4602934E
:10151000174B184A19680023A0FB0101FEF738FE9B
:10152000154B002C019314BF0023032301380090B6
:10153000039312480099836842681268914214D854
:1015400069469B69984710F13E0F09D154B90C4A7E
:101550001368591C1CBF01331360002004B010BD78
:101560000028FAD0074B1860F8E76FF01500F9E78C
:10157000FC0D002040420F00DD18000870C3000879
:10158000EC0D0020E00D00202DE9F0430025A846D9
:10159000144E154F85B03068CDF80C80836803A9D0
:1015A0005B6898470446D8B9039C96F80490337B4F
:1015B00024FA09F9DC4009F0010904F0010408F0FB
:1015C000B8F92946009023464A463846013501F0CD
:1015D00035FB032D06F11006DDD105B0BDE8F08323
:1015E0008146ECE780C50008D80200202DE9F047CD
:1015F0001D481E4F83685B68984700221C4B1A7079
:101600003B680BB1FFF754FF00251A4CDFF86880E8
:10161000DFF86890DFF868A00021204608F075F92F
:10162000064602200AF0B7FA56B1D8F80030B3B136
:1016300001235146114889F8DD3408F040FA05E0ED
:101640002179206808F050F90028EED10135032DEA
:1016500004F11804E0D100233B60BDE8F0870423C7
:10166000C8F80030E4E700BF70C30008E80D0020B0
:1016700065180020B0C50008E40D0020D802002045
:10168000DEC8000808B50146034808F018FABDE8AE
:101690000840FFF7ABBF00BFD802002010B5EFF342
:1016A0001184102383F31288BFF36F8F032807D1AF
:1016B00001220C4B1A7084F31188BFF36F8F10BD99
:1016C0000628F5D010F0FA00F5D1074A054B18703E
:1016D000136801331360054BC3F820040448FFF777
:1016E000D1FFE8E764180020F80D0020D8020020A0
:1016F000EFC800080122034B034883F8DD24FFF7FD
:10170000C1BF00BFD8020020F8C8000838B50D4698
:1017100001790068144608F0E7F8A8420CD0074B9E
:101720001A6802B91C600122054B064883F8DD24C3
:10173000FFF7A8FF002038BD0120FCE7E40D0020E2
:10174000D8020020DEC8000870B505460E461446D3
:1017500008F0DBF860B10B4B1A6802B91C6001227B
:10176000094B0A4883F8DD24FFF78CFF002070BD89
:1017700002200AF010FA224631462846BDE87040A1
:10178000FFF7C4BFE40D0020D8020020DEC8000827
:101790002DE9F041284B1B68002B32D1274E3378BE
:1017A0007BBB274B1D6865BB264C274F04220021BD
:1017B0002046FFF7ABFF20B30222002104F1100006
:1017C000FFF7A4FFE8B157F8043F05F10108002B2B
:1017D00004D14546032D1BD01834E7E7CCBF0121C7
:1017E00000211A4B01225B5D4546CB1A59425941F3
:1017F00004F10800FFF7A8FF032D07D018340028D4
:10180000D4D11348BDE8F041FFF73CBF0028F8D021
:1018100001214CF25030FFF777FE18B1BDE8F041DE
:10182000FFF768BF0B4883681B6898470028F5D10D
:1018300001233370BDE8F081E40D0020651800201D
:10184000E80D0020B0C500083C070020AC070020D0
:10185000DEC8000870C30008F8B51D4E1D4DEFF33B
:101860001184102383F31288BFF36F8FFFF78CFE70
:101870000022194B10461F469978E9B91979D9B950
:10188000597901320143032A01F0010003F1800379
:10189000F2D1304608F039F82B7823B197F8DA34D2
:1018A00063B9FFF7A3FE84F31188BFF36F8F0021A4
:1018B000142007F0A7F8D2E70121E2E708F039F891
:1018C0000146054801F052FB0028EAD0EBE700BFD3
:1018D00078C5000865180020D80200202DE9F84FCF
:1018E000EFF31186102383F31288BFF36F8F7F4BC2
:1018F0001D6845B17E48FFF7C5FE86F31188BFF32A
:101900006F8FBDE8F88F7B4FFFF73EFE3C68002CE1
:101910006ED0FFF7CDFDDFF8E081D7F8009029FA0F
:1019200005F3DB071AD40135032D08F11808F6D1A9
:101930000025724C3D6094F866388BB394F8673894
:1019400073B3D4F83424D4F838349A4228D12046DA
:1019500001F0AEFB50B9FFF749FECEE704220021AB
:101960004046FFF7F1FE0028DDD1C6E707F0E1FFB2
:101970000146204601F0FAFA0028ECD0604F04F24C
:10198000644858F8043F002B20D10135032D07F19E
:101990001807F6D15B4B1A68632A9CBF64221A6051
:1019A00094F8DA34002BD6D007F0C3FF0146534831
:1019B00001F0DCFA0028CED00021524B1868FFF766
:1019C000A3FD002899D0FFF795FE96E7CCBF012133
:1019D00000214D4B01225B5D3846A1EB030CDCF18D
:1019E000000141EB0C01FFF7AFFE0028CDD184E7E9
:1019F00007F09FFF0146414801F0B8FADFF8FC808C
:101A00000028A8D03C4DA246A94608F2644B022209
:101A1000002109F11000FFF779FE00283FF46DAFB7
:101A2000042200214846FFF771FE00283FF465AF0D
:101A30005BF8043F002B47D10AF1010ABAF1030F0A
:101A400009F11809E3D107F074FF01462B4802F0B1
:101A5000ADF92C4B4FEA5009A0EB50001860274815
:101A600002F0A8F898F8DA348246002B3FF473AFFE
:101A70002AFA04F3DB071CD54FF0010B3A680BFA86
:101A800004F313433B6005F02DFADFF88080032256
:101A9000C8F8000059462846FFF756FE00283FF4D4
:101AA0002CAF05F01FFA2146C8F80000134808F0D3
:101AB00067F80134032C05F11805D9D10F4802F05D
:101AC0004FF9002148467AE7CCBF012100210E4B97
:101AD000012213F80A30C81A4142414109F10800B5
:101AE000FFF714FE0028A7D107E700BFE40D002090
:101AF000DEC80008E80D0020B0C50008D8020020AC
:101B0000B8C50008F00D0020AC070020F40D00203F
:101B10002DE9F04FA548ADF62C2D00F003FFA448A9
:101B20000AF048F8002800F02A84A2480AF042F897
:101B3000002800F02484A0480AF03CF8002800F0B7
:101B40001E8400269D4F9E4CDFF8788220680AF0A4
:101B500031F8002800F01384A06804F108090AF0A5
:101B600029F8002800F00B84206904F110050AF020
:101B700021F8002800F003844FF4B011204607F04C
:101B800094FE002840F0FB834FF4B011484607F064
:101B90008CFE002840F0F3834FF4D011284607F064
:101BA00084FE002840F0EB833D46579028680AF0F9
:101BB00001F86290002800F0E2834146284607F0D1
:101BC00074FE002840F0DB83579B0835002B00F0A3
:101BD000E7820236062E04F1180407F11007B5D18A
:101BE0004FF4B011784807F060FE002840F0C7833A
:101BF0007048D0E90123DB6A002B00F0D4829847BB
:101C0000724B1860724B984204D00522714B1A60D7
:101C1000FFF770FD70480AF090F8704802F0F2FF8C
:101C20000446002840F0AB83034606468046EFF3A7
:101C30001181102282F31288BFF36F8F684A1268F5
:101C40006092684A127881F31188BFF36F8F6099B0
:101C50008B4200D13AB9584B9D682B68002B40F05D
:101C6000A4820026B0464FF48077534BDFF878917A
:101C70009B685893589B1B6863B34F480DF227210C
:101C8000984738BB9DF827320D2B21D00A2B40F006
:101C90003E83002E40F02383B8F1000F00F01F8335
:101CA0008AAD05F80860EFF31188102383F31288DA
:101CB000BFF36F8F4B4B1E78002E40F07E824B4857
:101CC000FFF7E0FC88F31188BFF36F8F4FF0000837
:101CD000013FCFD1EFF31187102383F31288BFF3B5
:101CE0006F8F434DFFF750FC2B7843B1DFF8BC906A
:101CF00099F8DA34002B40F02A83FFF777FC3D4B4C
:101D00001B6863B907F015FEDFF8A090014648464E
:101D100001F042FA012840F02483FFF739FD87F3F0
:101D20001188BFF36F8F07F004FE031B632B6190D4
:101D300040F230824FF4A0720021BAA80AF0FDF9F7
:101D4000EFF311836693102383F31288BFF36F8F31
:101D5000164CD4F8203420466793D4F82434689382
:101D6000D4F840346993D4F834346A93D4F83834CE
:101D70006B93214B1B686C93B4F858386D93B4F88F
:101D80005A386E93B4F85C386F93B4F86038C3F186
:101D900020037093D4F84C38719307F086FE002826
:101DA00040F0EB82124B1B7828E000BFD8020020E5
:101DB0000CC3000870C3000848C3000880C50008B1
:101DC000B0C500081000010078C50008FC0D002017
:101DD00040420F00E40D0020680200209D1600081C
:101DE000F80D00206418002077C90008EFC800082B
:101DF00065180020E80D0020EC0D0020639394F896
:101E0000DC34729394F8DD34739394F83135749321
:101E1000D4F834357593D4F80435769394F8DF34D8
:101E20007793D4F82035789394F828357993D4F8BB
:101E30002C357A93D4F808357B93D4F810357C93FD
:101E4000D4F80C357D93D4F814357E9394F830355E
:101E50007F93D4F8C834809394F8DA3443B107F010
:101E600068FD0146A24801F0A1FFA24BB3FBF0F3CD
:101E700000279F4CB946A2466493D4F8F033CDE9CD
:101E80005C778193D4F88034CDE95A778293D4F883
:101E9000C03404F5597B8393D4F8C434BAAD849329
:101EA00094F8A934CAAA859304F56273659304F281
:101EB000D3435F93904B5E9758975997DBF8100088
:101EC000DBF804108693091A45F8041BDBF81C1094
:101ED000659B091AA960F3E90201E2E90201216C9C
:101EE0006593C5F8C810DAF84412599BC5F8D410A8
:101EF00061694FEA490E003918BF012101FA09F161
:101F00000B43E1685993B1F1000C216918BF4FF000
:101F1000010C003918BF01215A9B4CEA410000FA1C
:101F20000EF00343DBF8440087926861DBF8500051
:101F30005A932862DAF824020BF1040BE862DAF80B
:101F400028020AF1780AA8639AF88801E8659AF8E5
:101F50008A01579BA8669AF889016867A0780028CB
:101F600018BF9C4620790CFA0EFC002818BF1946B1
:101F70000EF1010E5B9B01FA0EF141EA0C010B43DD
:101F800020465B9307F071FE5C9B00FA09F0034367
:101F90005C935F9B803419795D9B01FA09F10B43D7
:101FA0005D935F9B13F8011F5F93589B01FA09F142
:101FB0000B435893DBF80011869BC5F80011986815
:101FC000197B07F091FC431E584258415E9B00FA72
:101FD00009F014F87B1C034301FA09F15E9309F13F
:101FE0000109869BB9F1030F879A47EA010703F1BC
:101FF00018037FF463AF414B1C68414B1D68669B1F
:1020000083F31188BFF36F8F07F093FC759B4FF438
:10201000C061CDE953536C9B5293739BCDE9504300
:10202000719B4F93709B4E936F9B4D936E9B4C9304
:102030006D9B4B93859B4A93849B4993839B4893C9
:10204000829B4793819B46935E9B4593FD9B449364
:10205000FC9B4393FB9B4293649B4193809B4093E7
:102060007F9B3F93F29B3E93F19B3D93F09B3C9370
:102070007A9B3B93799B3A93789B3993EF9B389368
:10208000EE9B3793ED9B36937E9B35937D9B3493EC
:102090007C9B33937B9B3293769B3193779B3093DE
:1020A000599B2F935A9B2E936B9B2D936A9BCDE943
:1020B0002B73589B2A935D9B29935C9B28935B9B76
:1020C0002793DA9B2693D99B2593D89B2493D79B60
:1020D0002393D69B2293D59B2193D49B2093D39B70
:1020E0001F93D29B1E93CB9B1D93CA9B0AE000BFFC
:1020F000D802002040420F00B0C50008E40D0020C7
:10210000E00D00201C93C99B1B93C89B1A93C79B8F
:102110001993C69B1893C59B1793C49B1693C39B97
:102120001593C29B1493C19B1393C09B1293DDE93B
:10213000D023CDE91023DDE9CE23CDE90E23DDE95F
:10214000CC23CDE90C23BF9B8F4A0B93BE9B0A93F4
:10215000BD9B0993BC9B0893BB9B0793BA9B0693BB
:10216000749B0593699B0493729B0393639BCDE9D6
:102170000103689B0DF585600093679B06F080FE68
:1021800040F2FE530138984203D80DF58560FFF701
:10219000A7F9619C1420002106F034FC609B46E501
:1021A0000123579302E550682AE578480DF227216C
:1021B000984700283FF451AD53E5DFF8D4B1FFF75D
:1021C000E3F99BF80030734E23B196F8DA340BB97B
:1021D000FFF70CFA07F0ADFB294602466D48FEF703
:1021E0005BF9032882467CD16B4BD6F8D054196832
:1021F0009BF8003063B10021664801F079FEFFF7DB
:10220000F5F9664B634A4FF0020AC2F838352BE005
:10221000634B1B681943EED118235D43DFF884B18B
:1022200004220BEB0500FFF771FA0028E3D010350C
:102230005D44284696F8DE1407F067FB83460220CB
:1022400009F0A9FCBBF1000FD5D196F8DE142846A1
:1022500081F001010222FFF759FA054601464D4877
:1022600001F046FE002DCAD04F4ABAAB1068516843
:10227000BAAA03C300234D498AA8CDE9BC3306F0AE
:102280002BFEBAAA12F8013B33B1413B192BF9D905
:102290004749BAA8FEF7F0F83E4ABAADD2F8383549
:1022A00001950393BAF1020318BF01230293D2F8F8
:1022B0002434C0210093D2F820340DF585603D4AC6
:1022C00006F0DEFD88F31188BFF36F8F3A49284688
:1022D000FEF7C8F818B10DF58560FFF701F9002683
:1022E000F4E4012808D1FFF753FA96F8DD34002B07
:1022F000BAD0D6F8343585E796F8DA34002BB3D166
:102300009BF80030002BAFD0FFF770F9ACE7002E40
:102310007FF4DEACB8F1BE0F03D8A3F120025E2A31
:102320000FD9EFF31185102383F31288BFF36F8F5A
:102330004846FFF7A7F985F31188BFF36F8F629EB8
:10234000C4E48AAA02F8083008F10108C0E407F0E2
:10235000F0FA0146484600F009FE00283FF4CDACF3
:10236000CDE499F8DA34002B7FF4D9AC2B78002B2C
:102370003FF4D5ACFFF73AF9D1E401233EE5002064
:102380000DF62C2DBDE8F08F87C9000848C3000862
:1023900065180020D8020020E40D002004C90008C0
:1023A000E80D0020B0C5000860C5000810C900088D
:1023B00015C900081DC9000872C900082DE9F74FAA
:1023C0000027044699460B1FC0F83874C0F83474CF
:1023D000C0F83C24C0F80075019300F5597500F56C
:1023E000896E00F58C6A019BDFF808B153F8046F21
:1023F000019355F8043FF017B6EB030C60EBE37064
:1024000006F5741303F510635B4503D9022003B08E
:10241000BDE8F08F00286346834603DADCF1000351
:1024200060EB400BDFF8D080984577EB0B0BEDDBD2
:10243000BCF1010FAE6170F10006ACBF01260026B1
:102440004FF0000B4FF0000CA6EBD070C5F8000168
:10245000C5F8DC30EEE902BCD4F83804834288BF0A
:10246000C4F83834D645BED140F24E235A43D4F88E
:1024700038049042CAD8D4F86834D4F87053C4F8F9
:102480007434D4F86C34D4F88064C4F878348B682D
:102490004968DA175B1B62EBE572D4F86C53CF170F
:1024A000491B67EBE577D4F8845412054D4307FBCD
:1024B0000655A6FB016142EA13321B059B1B0D4426
:1024C00062EB0502012B72F10003ACBF0123002374
:1024D000B9F1000FA3EBD273C4F87C340CBF012315
:1024E0000323003818BF012084F8303584F8DA045B
:1024F0008DE700BF00127A0040420F0070B5002641
:10250000044600F5926518223146C0F86864C0F8A8
:102510006C64C0F87064284609F00FFE182231463A
:1025200004F58A6009F009FED4F8C834D4F8A02173
:10253000ABB95242C4F8682400234FF48012C5E9B5
:10254000002345E90223D4F8A001D4F8DC31003897
:1025500018BF0120C4F8FC3484F8DA0470BD03F518
:102560008D7144F821204FF48010002103F1920274
:1025700004EBC202012BC2E9000145E90201E2D1EC
:10258000D4F88034D4F88424012B72F10001ACBF5C
:1025900001210021D4F86C04A1EBD2714143002A3F
:1025A000C4F8701402DA5B4262EB42020549C4F8D7
:1025B000A0348B4272F10001C4F8A424A8BF45E9FD
:1025C0000232C0E7010010002DE9F74F1C46DDE99B
:1025D0000CA80378834616460E9F1BB9002003B053
:1025E000BDE8F08F2D2B03D0A3F13002092AF5D8D6
:1025F0002D2B0CBF5A46ABF1010212F8013FFBB97B
:1026000009F000FE0546DFF840900A2240F8093044
:1026100001A9584606F080FC55F80930002BDDD1A1
:10262000019B1B78002BD9D1B04271EB0404D5DBA0
:10263000824578EB0108D1DBC7E900010120CEE734
:10264000303B092BD9D9C9E70C000000F8B590F848
:10265000A934044643BBD0F8B8230AB9D0F8C42340
:10266000D4F8BC330BB9D4F8C833D4F8F063F017FE
:10267000A6FB036103FB0011104B0905A2FB03231A
:1026800051EA16314FEA52004FEA065540EAC3704C
:102690004FEA630709D4281841EB0701FDF728FD2D
:1026A000C4F88004C4F88414F8BD401B67EB010132
:1026B000FDF71EFD404261EB4101F1E740420F0092
:1026C0002DE9F04190F8DD3404460E46002B61D12F
:1026D0000546074600F1030897F8D734391B002B4D
:1026E0005AD06B69B3B1D4F808358B4203D1D4F812
:1026F0001035042B0BD02046C4F8081507F021F93B
:102700000423C4F80C05C4F81035C4F81465254832
:10271000BDE8F0816B79ABB1D4F808358B4203D1B9
:10272000D4F81035022B0BD02046C4F8081507F05A
:1027300008F90223C4F80C05C4F81035C4F8146570
:102740001948E5E7EB68B3B12B69A3B194F8DF341E
:102750008BB9204607F01BF968B12046C4F808156C
:1027600007F0EFF80123C4F80C05C4F810350F4842
:10277000C4F81465CCE7284607F077FA70B16B6AA5
:10278000F31A1E2B0CD80137474505F18005A3D15C
:102790000020BDE70648BBE70648B9E70648B7E7AB
:1027A0000648B5E754CD00088FCD000885CD000858
:1027B00004C900085ECD000874CD000867CD00088C
:1027C0002DE9F84305468846D0F874030968164693
:1027D000CA17091A62EBE072002A4FF00003C0F238
:1027E0009880D5F8A803884273EB0202C0F2938068
:1027F0004FF47A20D5F87813D8F80440E217641A19
:1028000062EBE172A4FB004100FB0211D5F8B82392
:1028100099424FEA52005DDB201841F10001FDF7BB
:1028200067FC04460F464FF47A20D5F87C13D8F89D
:102830000830DA175B1A62EBE172A3FB003100FB90
:102840000211D5F8BC2300294FEA52004BDB1818BF
:1028500041F100010023FDF74BFC80468946D5F885
:10286000F0332E4803FB07F1DA1704FB0211A3FB38
:102870000432891842D41818294A4FF0000341F154
:102880000001FDF735FCD5F8D8333344DA179C4204
:1028900077EB02023DDBD5F8E0339B1BDA17A3424E
:1028A000BA4136DBD5F8DC33B8EB0008334469EBCA
:1028B0000109DA17984579EB02022ADBD5F8E433EF
:1028C0009B1BDA17434572EB0902ACBF01200020C5
:1028D000BDE8F883001B61EB4101FDF709FC4442B0
:1028E00061EB41079FE7C01A61EB41010023FDF74F
:1028F000FFFBD0F1000861EB4109B0E7C01A61EBC2
:1029000041010023064AFDF7F3FB404261EB410120
:10291000B9E70020DCE71846DAE700BF20A107008E
:1029200040420F0038B540F668020021044609F025
:1029300004FC4FF0FF330125C4F80835204607F0AA
:102940008DF984F8D75484F8D45404F1800007F04A
:1029500085F984F8D85484F8D55404F5807007F0CC
:102960007DF9002384F8D95484F8D63404F5C07076
:1029700007F074F94FF4C81243F255534FF4204155
:10298000C4E9F0231023C4E9F21308231D4AC4E963
:10299000F4331D4B1D48C4E9F723C4F8E4334AF669
:1029A000C873C4E9FB30802384F8A854C4F8AC345D
:1029B00040F6B835C823C4E9FE53C4F8043449F6D8
:1029C0004043C4F8D8234FF49652C4F81034104B47
:1029D000C4F80824C4F814344FF400734FF4C872D8
:1029E000C4F818344FF48063C4F80C244FF44872D0
:1029F000C4F81C34074BC4F80024C4F83835C4F8B4
:102A0000343538BD70A0FEFF905F010055581400AA
:102A1000E09304009CCD0008F8B50446164600EB90
:102A2000C112D0681D4694F82875CB0108B112690F
:102A3000E2B9021E18BF0122234493F802C0944554
:102A400014D11A6993F804C0131E18BF01239C45C2
:102A50000CD10EB1024309D137B1D4F82C358B42D9
:102A600002D1002384F82835012014E01FB1D4F8E6
:102A70002C358B4206D00123C4F82455C4F82C15FC
:102A800084F828350F4BC4F83435D4F82435EB1AC4
:102A9000C72B01D80020F8BDC4F80815204606F061
:102AA00050FF07230849C4F81035084BC4F80C053B
:102AB000002E18BF19462046C4F8145506F0FFFF33
:102AC000E8E700BFCDCD0008B2CD0008A9CD0008D1
:102AD0002DE9FF411646002204460D461F46FFF72A
:102AE0009BFF48B994F8DB6486F001067600F6B2E5
:102AF000304604B0BDE8F081012D07D13B462A469F
:102B000002212046FFF788FF0028EBD002234FF078
:102B1000000884F8316504F5C076802284F83035E9
:102B2000304684F82885C4F8C85404EBC51109F070
:102B3000F6FA00220023C4F8A081C4E97C23C4E98A
:102B40007A2395BB4FF47A7294F8D434D4F814C431
:102B500083F0010384F88031D4F80C34D4F81CE4F9
:102B6000C4F83832D4F80834C4F84C7204F5007054
:102B7000039704EB8501D1F8CC13CDF800C0CDE963
:102B800001E1314601F052FA782202FB0545D4F802
:102B90002C340228C4F8E0310646C5F84C3230D156
:102BA0002046244906F08BFFA2E7631993F8D4343A
:102BB000022D84F880314FF0780303FB0543C3F8FE
:102BC0004C7211D1D4F80434D4F8E423C4F8283377
:102BD000D4F8DC3304F53C70D21AD4F80034D4F8BD
:102BE00010C4D4F818E4C3E73223D4F8E023C4F8BF
:102BF000B032D4F8D83304F51E70D21AD4F8FC33AE
:102C0000EDE7D4F8A03163B994F8F831022B01D084
:102C10000B2B06D1204606F094FEC4F81C75C4F8B0
:102C200018052046044BC4F8343504B0BDE8F04123
:102C3000FFF764BCDCCD0008E6CD00082DE9F74FB6
:102C4000022904460D4691461F460C9E00F26881FB
:102C500000EBC11898F80530D8F80CB04FEAC11A4B
:102C60000193BBF1000F06D0D8F81030B3F1000B80
:102C700018BF4FF0010B04EB0A035B693A4600935F
:102C800049463346404607F02EF8019B002B69D198
:102C900098F80530002B6BD1009B002B64D004EB1F
:102CA0000A035B69002B40F08C8094F8DC34002B25
:102CB00000F09A80B9F1010F00F0A38094F8DB34A2
:102CC000002B00F02D8194F83035022B04D1D4F87C
:102CD000C834012B00F03E8194F831350A2B40F0C6
:102CE000FA80022D40F0F780B9F1010F02D0012FD8
:102CF00040F0F18094F8DF3453BB94F8DA244FF0BD
:102D00000108C4F8EC34C4F8F03484F8293584F8A8
:102D1000DA34022384F8E024D4F8A021C4F808357A
:102D2000C4F8E42494F8F821204684F8E824C4F890
:102D3000F864C4F8F46484F8DF8406F002FE874B7C
:102D4000C4F80C05C4F81085C4F81465C4F834350B
:102D5000D4F8EC3443F00403C4F8EC34012384F8D1
:102D60002935B8E0009B3BBB04EB0A035B691BB34E
:102D700004EB0A035A692046002A14BF04230223E5
:102D8000C4F808550093019206F0DBFD009BC4F8DF
:102D90000C05C4F810352046C4F8146506F085FE0D
:102DA00050B994F8DC343BB96D4B6E49019A002A56
:102DB00018BF0B46C4F8343598F80530002B3FF4A3
:102DC0006EAF204606F071FE10B994F8DC345BB1AA
:102DD000A244DAF81410624A624B204600290CBF64
:102DE0001146194606F06BFE94F8DB34002B00F018
:102DF0009780B9F1010F7FF466AF012F7FF463AFC5
:102E000015E0012F7FF45AAF2046C4F8085506F0AC
:102E100098FD5549C4F80C05C4F810752046C4F84F
:102E2000146506F04CFE94F8DB34002B78D098F84B
:102E3000058094F830A5B8F1000F7FF444AF29461F
:102E4000204606F0A4FD00286DD0BAF1020F08D18B
:102E5000D4F8C834012B04D1A91ED1F1000848EBE5
:102E6000010894F8DF344BBB4FF0010A94F8DA24E0
:102E7000C4F8EC3484F8E024D4F8A021C4F8F03489
:102E8000C4F8E42494F8F82184F8293584F8DA3475
:102E9000204684F8E824C4F8F864C4F8F46484F89C
:102EA000DFA4C4F8085506F04CFD2C4BC4F80C0503
:102EB000C4F810A5C4F81465C4F834350122D4F858
:102EC000EC34AA401343C4F8EC3494F8293548EAAA
:102ED000030884F8298594F83035022B20D1D4F8E2
:102EE000C834AB421CD1D4F8A05133463A464946C7
:102EF00004F5C07006F0F7FE95B1D4F8A0317BB9A7
:102F000094F8DF3463B994F8F831022B01D00B2B1D
:102F100006D1204606F015FDC4F81C65C4F8180556
:102F200003B0BDE8F08FBBF1000FD4D1D4F8203549
:102F300020465A1C1CBF0133C4F82035C4F808557C
:102F400006F0FFFC0623C4F80C05C4F81035C4F8DD
:102F50001465C0E7022DC2D1C6E600BFF3CD00085C
:102F60008FCD000854CD000885CD00082DE9F04133
:102F700090F8DA6404460D46002E3DD0FFF7A0FB22
:102F80000146B0BBD4F82C34EB1AB3F5AF7F2FD287
:102F9000D4F8303494F8DB04EA1A3B493B4B002860
:102FA00018BF0B469A422BD2D4F86833384A03F53F
:102FB000741303F6FF03934224D8D4F86C3303F55B
:102FC000741303F6FF0393421CD8D4F8703303F54F
:102FD000741303F6FF03934214D894F83075022F4C
:102FE0001AD1D4F8A0317BB9002384F8DA3403E095
:102FF0002849204606F063FD00263046BDE8F081F2
:103000002549F6E72549F4E7294604F5C07006F09E
:10301000EEFE0028F1D1E7E794F831350A2B0DD107
:1030200001212046D4F86C2406F0D6FC30B10023F0
:1030300084F8DA34012384F8AA34DDE7002504F5A6
:103040008E6858F8042F2946204606F0C5FC024633
:1030500040B12DB11249134B012D08BF1946C8E7E5
:103060001149C6E70135032DEBD1012FC5D194F8E5
:10307000DC3433B1204604F55A71FFF7A1FB002878
:10308000BBD10A49B5E700BF40771B00C027090044
:10309000FE117A0003CE000812CE00081ECE0008F2
:1030A0002ECE00083FCE000837CE000848CE0008DC
:1030B0002DE9F84F90F866780446DFB190F867384C
:1030C00053B1D0F83424D0F838349A4212D3B0F83F
:1030D0005C380133A0F85C38B4F85C28B4F8583890
:1030E0009A420BD1002384F8DA34A4F86638274BCF
:1030F000C4F8343500273846BDE8F88FB4F8606866
:103100005EB9D4F84C3822495A1C1CBF0133C4F8AC
:103110004C38204606F0D3FCECE71821B4F85E5892
:103120000023694304EB0108B8F84C9501F23C51C7
:103130004A4621442046FFF741F9D8F848B582466F
:10314000C4F848B8B8F84E155A46A4F86218B8F84A
:1031500050854846A4F8648806F00AFC5A46C4F82C
:1031600050084146484606F003FC0123013505F0AE
:103170001F05013E9A45C4F85408A4F85E58A4F807
:10318000606884F86738B6D00249C2E753CE0008B9
:103190005CCE000869CE00082DE9F04F90F8663843
:1031A00004460D4687B08BB190F8673873B9FFF7C6
:1031B00087FA014608BBD4F82C34EB1AB3F5AF7F7D
:1031C00020D20025284607B0BDE8F08F94F8DB3404
:1031D000002BF6D029462046FFF772FA014660B967
:1031E000D4F82C34EB1AB3F5AF7F0BD2D4F83034CB
:1031F000A24AEB1A934207D3A149204606F05FFC8E
:103200000225DFE79F49F8E794F8DF346BBB94F8B9
:103210003035022B40F07E827826D4F8C8042A4646
:1032200006FB004004F5C07100F5007000F05CFF83
:10323000D4F8C83406FB03F2A11891F800720B2FE2
:1032400040F0BA8091F80222062A0CD1C4F8083561
:103250000523C4F81035D4F81835C4F80C35D4F863
:103260001C35C4F814358849C7E7D4F8EC3413F09A
:10327000010618BF03269A0748BF46F00C065807F8
:10328000204648BF46F0300606F05BFBD4F8F03429
:1032900030409842C0F381031CBFC4F8F004C4F866
:1032A000F854032BD4F8F4344FEA1012A5EB0303BF
:1032B00006D1C72B85D903237449C4F810359CE780
:1032C000032AF6D0C72BF6D800F0030003283FF4FA
:1032D00078AFD4F8F834EB1A132B7FF672AF94F86A
:1032E0002935A3B1D4F80C3113B9D4F8103173B126
:1032F00002232046C4F8083506F023FB072364495F
:10330000C4F80C05C4F81035C4F8145575E700234B
:1033100084F8DF34D4F80435C4F8FC54591C1CBFBD
:103320000133C4F804355B4BC4F83435D4F8343475
:10333000C4F8003594F8E03484F8DA3494F8303581
:10334000022B06D094F8DA34002B3FF460AF01254D
:1033500038E7782094F8E824D4F8E41484F8F821C5
:10336000D4F8C824C4F8A01100FB02420020814216
:1033700082F8700216D0CCBF0121014694F880215A
:10338000914213D1D4F88C21002ADBD000222046B0
:10339000C4F8A02184F8F83106F0D3FAC4F81C551B
:1033A000C4F81805002384F8DA3430E7D4F89031F3
:1033B000002BC7D00B23E9E7012805D1204607B031
:1033C000BDE8F04FFFF79AB804282BD1D4F8A0211C
:1033D00093B95242C4F86824012384F8DA342D4B9F
:1033E000C4F8FC54C4F83435D4F804355A1CAED0B3
:1033F0000133C4F80435AAE703F58D71012B44F8B5
:103400002120E9D1D4F88034D4F88414012B71F14F
:103410000003ACBF01230023A3EBD1735343C4F8D3
:103420007034D9E702F50070204406F040FD834671
:1034300000287FF4C6AED4F8C89406FB0946D6F837
:1034400004A204EB8907C7F8A8A3B9F1000F76D14D
:10345000D4F8F42312B34FF47A27AAFB07B74B46EC
:10346000394658460192FCF793FE019A0646934569
:1034700077F10007884616D20749BEE640771B0061
:1034800012CE000803CE000886CE000876CE0008D3
:10349000A9CD0008E6CD000899CE0008D4F8C06395
:1034A000C846002EE8D0BF4BB3424FF0000373EB89
:1034B0000803E1D394F83135C4F8B463062B03D183
:1034C00094F8A934002B79D1D4F86833A3EB0A031C
:1034D000C4F8743394F83135062B52D02046FFF7E8
:1034E000B5F8D4F88424D4F88034002A02DA5B4298
:1034F00062EB4202AC498B4272F1000280F2088119
:10350000D4F86803D4F86C1303AB03C3D4F8700386
:1035100004F55A76186094F83135013B0B2B00F214
:103520004183DFE813F0FD000101320136028F0212
:1035300092020B033F033F038001AF0135014FF4BB
:103540007A20D7F8D433D7F8DC23AAFB0001D21AAB
:103550005B46FCF71DFE954A431E884661F100015B
:103560009A427BEB0101064686D3B9F1010FC7F8F9
:10357000B4031FD094F83135062BAFD194F8A93499
:10358000E3B9D4F8E833D4F8F013D4F8DC6383FB60
:103590000131002986484FEAE67880F28A80C01A15
:1035A00061EB41010023834AFCF7A2FD404261EB3D
:1035B000410186E094F8A934002B53D0D4F8C034EC
:1035C000D4F8B803DA17012B72F10001ACBF012760
:1035D0000027A7EBD277D4F8C424002B87FB027214
:1035E000A7FB007100FB02127249B8BF5B42A7FB48
:1035F00001C701FB0277D4F8BC13D817A3FB012342
:1036000001FB0033002F4FEA520040EAC3704FEA3B
:10361000630113DB1CEB000047EB0101FCF768FDC5
:103620000029034602DA434261EB4101624A9A42B1
:103630004FF000038B410BDA6049DEE5B0EB0C0084
:1036400061EB0701FCF754FD404261EB4101E7E704
:10365000C4F8F003B9F1000F3FF436AFB9F1010F30
:103660007FF438AFD4F8D803D4F86C7300FB08F1BA
:10367000C31706FB0311A0FB060689190DD410F52C
:10368000FA204FF47A224FF0000341F10001FCF7D9
:103690002FFD3F1AC4F878731CE7D0F5FA204FF4D9
:1036A0007A224FF0000361EB4101FCF721FD40421B
:1036B000EFE718183F4A4FF0000341F10001FCF713
:1036C00017FDD4F8BC33301848EB0108A3FB000108
:1036D00003FB08110029D4F870730DDB10F5FA20F4
:1036E0004FF47A224FF0000341F10001FCF700FD96
:1036F0003F1AC4F87C73F1E6D0F5FA204FF47A2231
:103700004FF0000361EB4101FCF7F2FC4042EFE7B0
:103710002B4972E594F8DA34002B3FF4F1AE50E512
:103720002B460222022136E0D4F8B033D4F87023BD
:10373000C4F8B03403EBD373C4F8B82402EB6302CB
:10374000C4F8BC24059A204602EB6302059203A943
:103750002A4606F0E2F930B994F8DB0480F0010063
:103760004000C5B22EE5032384F83135C822012379
:10377000204603A9FEF722FE022805467FF422AD6B
:103780002046104906F09BF91CE594F8A834DBB9F3
:103790002B4604220121204607B0BDE8F04FFFF779
:1037A00097B900BF00E1F505010000043F420F009A
:1037B00020A1070040420F0080841E00A6CE000812
:1037C000B8CE000855CF00082B4600220121204624
:1037D000FFF722F900283FF4F4AC2B460122022126
:1037E0002046FFF719F900283FF4EBACD4F86C330E
:1037F0000122C4F8B434002311462046C4F8C4346E
:10380000C4F8C034A4F8AA3406F0E6F8D4F8AC241E
:1038100000B15242049B134404930A2384F83135C7
:1038200001233222A4E794F8AA34E3B194F8AB342C
:103830000BB1C749E1E44FF48073D4F8AC24D4F859
:103840006C14A4F8AA34D4F8B434204601FB123323
:103850002A4603A9049306F060F901230028E0D169
:10386000A4F8AA34ADE4D4F86C33D4F8B4249B1A89
:10387000C4F8C0340F331E2B01D8B649BDE42B4623
:103880000B224FE76421D4F8B033D4F8B024D21A15
:10389000B3FBF1F3002AB8BF524204339A4201DD70
:1038A000AD49AAE4D4F8C024D4F8B834D4F870638D
:1038B000012AA6EB03064FEAE27373F10001ACBFE5
:1038C00001270027A7EBD37787FB0671002AB8BF33
:1038D00052420905D317500851EA1731C4F8C4649D
:1038E0004FEA075C40EAC3701CD41CEB000043EBBA
:1038F0000101FCF7FDFB002903460A4602DA4342B8
:1039000061EB4102954FBB4272F1000204F59063F6
:1039100002DA07360E2E0FD800210020C3E900017D
:103920008F496AE4B0EB0C0063EB0101FCF7E0FBAC
:10393000404261EB4101DEE7C4F880045960D4F8ED
:10394000F023D317012A73F10002ACBF0122002239
:103950000128A2EBD37271F10003ACBF0123002355
:10396000A3EBD1739A4201D07E4946E40126D4F8F4
:10397000B4342A460493D4F8BC34204684F8A964AD
:1039800003A9059306F0C9F800283FF41AAC0C23EC
:10399000EAE6D4F8E803D4F8B833C217A0FB030171
:1039A00003FB02110029D4F8786336DB10F5FA2006
:1039B0004FF47A224FF0000341F10001FCF798FB2D
:1039C000D4F86C333044D4F88424C1170490C01A5E
:1039D00000FB02F261EBE371D4F8803401FB0322B7
:1039E000A3FB0030121824D413F5002342F1000287
:1039F0001B0D43EA0233059A20461A44059203A997
:103A00002A4606F08AF800283FF4A6AE05234FF4B4
:103A1000C87284F831350123AAE6D0F5FA204FF4B4
:103A20007A224FF0000361EB4101FCF761FB404259
:103A3000C6E7D3F5002362EB42021B0D43EA0233D3
:103A40005B42D8E72B4606226CE6D4F8E833D4F87C
:103A5000F013D4F8EC6383FB0131002942484FEAAC
:103A6000E67840DB1818414A4FF0000341F10001AD
:103A7000FCF73EFBD4F8BC33301848EB0108A3FB3D
:103A8000000103FB08110029D4F87C7336DB10F524
:103A9000FA204FF47A224FF0000341F10001FCF7C5
:103AA00027FBD4F8B433D4F8F86307440597A6FB92
:103AB000036716F5FA204FF0000347F100014FF4B9
:103AC0007A22FCF715FB2A4BB3424FF00003BB41AF
:103AD00006DAD4F8A8335A08904271F1000119DBD4
:103AE0002449FFF78ABBC01A61EB410100231F4A3A
:103AF000FCF7FEFA404261EB4101BBE7D0F5FA204A
:103B00004FF47A224FF0000361EB4101FCF7F0FA29
:103B10004042C6E7D4F8742303A91344181A03904B
:103B20002A46204605F0F9FF00283FF415AE07238A
:103B30004FF4487284F83135012319E64FF47A7254
:103B400031462046FEF73CFEC0B90B49FFF755BB96
:103B5000C8CE0008DDCE0008F2CE00080100000447
:103B600002CF000817CF000820A1070040420F0035
:103B7000FF2FF20025CF000831CF0008002384F882
:103B8000DB34012384F8DC34D4F840340133C4F846
:103B900040344FF40063A4F83035044BC4F8343596
:103BA000FFF70FBB0249FFF728BB00BF3DCF00085E
:103BB00049CF00082DE9F04F90F830650446022EF9
:103BC00013BF4FF0000CD0F88854D0F88CC4D0F854
:103BD000385485B055EA0C033AD000224FF0010862
:103BE0009146D0F86803D4F86C1301AB03C3D4F842
:103BF00070030DF1040E186004F2444704F58A6363
:103C0000022E14BF4FF0000AD3E9101A186818BF2B
:103C10003968091858684AEB0000A94270EB0C0A91
:103C20001CD2C3E900100132032A03F108030EF18C
:103C3000040E07F10407E3D1012E1FD10022204614
:103C400001A9FEF7BDFDD8B94349204605F037FF6D
:103C50004FF00009484605B0BDE8F08F491B60EB06
:103C60000C00C3E9001008FA02F1786A49EA010978
:103C7000DEF800100144CEF80010D4E7022EE9D09F
:103C8000D4F86C33029F039EFD17FF1A65EBE375B2
:103C900094F83135D4F870B30A2BD4F88084D4F872
:103CA00084A413D1012F75F10003ACBF01220022BF
:103CB00001212046A2EBD57205F08EFE30B1002323
:103CC00084F8DA34012384F8AA34C1E7D4F86813FD
:103CD000019B2046DA175B1A62EBE172012B72F14D
:103CE0000003ACBF012300230021A3EBD27205F037
:103CF00073FE70BB012F75F10003ACBF01220022DF
:103D000001212046A2EBD57205F066FE08BB08FB38
:103D100005F5F21707FB0A55B6EB0B06A8FB07875C
:103D200062EBEB72120542EA16323605B6EB080674
:103D30003D4462EB0502012E72F10003ACBF01238A
:103D4000002302212046A3EBD27205F045FE002895
:103D500080D0024979E700BF48CE000861CF000853
:103D600090F83035022B05D1D0F8A031CBB980F8CE
:103D7000DA347047D0F83434D0F838240133934221
:103D8000C0F834340DD390F8663853B990F8DB148A
:103D9000044A80F8DA34044B002918BF1346C0F8EF
:103DA00034357047E6CD000853CE0008F8B590F8DA
:103DB00030350546022B3BD1D0F8FC34D0F8DC215D
:103DC000D0F8C8048A1AC91A8A4228BF0A4678233A
:103DD000322A38BF322203FB0053D5F8D811D3F86A
:103DE0003832323A8B4228BF0B46B2F5FA6F28BF01
:103DF0004FF4FA62C91A4A434FF4FA61B2FBF1F286
:103E00001A44D5F88834D5F88C44A3FB023102FB60
:103E100004121B0D43EA0233322B38BF3223002831
:103E200058D0B3F5C86F28BF4FF4C8632F485AE085
:103E3000D0F83424D0F8387490F86638D0F83C4480
:103E4000BF1A53B390F867383BB3D0F850382146C7
:103E5000B0F8620805F0DAFD3A4606462146D5F884
:103E60005438B5F8640805F0D1FDB04228BF30469B
:103E70004FF08042904205D300232AB9322B38BF3D
:103E80003223CEE79208F5E7991881424FEA5303AF
:103E90009CBF9B18401A9208EFE7D5F80035D21A5C
:103EA000BA4228BF3A46D5F84834C82A28BFC822A3
:103EB00073B9D5F84C345BB9D5F80C14A14228BFBE
:103EC0002146631A5343C822B3FBF2F30B44D5E7F0
:103ED0003221F3E7B3F5C85F28BF4FF4C85303F5A9
:103EE000742000F23F20B0FBF3F0F8BD40420F0019
:103EF00039B1D0F8D02490F8DE34024482F8D734B7
:103F000070470122024980F8DD2405F0D8BD00BFCA
:103F100004C90008F8B50D461146026A0446069E1B
:103F200062B9012D01D06A1C08D141F6CE02A1F17F
:103F30003200904202D80E4A934206D900232362EF
:103F40000723022084F87830F8BD00272365A16597
:103F5000324629462046676505F08EFE034608B1C5
:103F60002762EEE70120C4E917662562EAE700BF91
:103F700040420F002DE9F3411F460023022A044668
:103F80000E4615460270A0F8703080F8723002D1EB
:103F9000236C012133E0082AFAD0052A2CD0042A08
:103FA00025D10121C36B626B1F48306330460097F7
:103FB000FFF7B0FFF765E36C0228804633660FD148
:103FC000012D96F8782006D13378002B14BF0B23EF
:103FD0000223934204D004233146204605F06EFFAD
:103FE00008F1FF335842584102B0BDE8F081062A7B
:103FF00007D1026C5300CCE74FF0FF31036CA26B8A
:10400000D2E74FF41273D340DA0706D5026C53009F
:10401000072D4FF0FF31C6D0F1E7012DC36BF7D16B
:104020004FF0FF31BFE700BFC0270900F0B5846B38
:104030001D46DDE90767DDE905C30CB93224846359
:104040000478013C082C47D90C6A002C44D1234C3D
:10405000A2F57A7EA6453FD841F6CE04A5F1320EF0
:10406000A64539D8846B312C36D9AC4234D81C4C97
:10407000ACF5807EA6452FD8A3F12004B4F5FF5FF0
:104080002AD89C4528D9022E1CD82EB304690134A5
:1040900022D00024C0E90B26C0E90944C0E90FC3BF
:1040A000C0E9127780F8204044648470447045630E
:1040B000D1E91A23C0E916233B46BDE8F0400122AE
:1040C000FFF758BFA6F1040EBEF11C0F04D8054C33
:1040D00024FA0EF4E407D9D40220F0BD587A050082
:1040E00040410F00111000102DE9F34113460278F2
:1040F0000546013A082A0C4608D8C26C9A1AB2F54D
:10410000AF7F07D30223032205F0D8FE002002B0C0
:10411000BDE8F081CA684E694AB10A693AB126B968
:104120000C22042321462846EEE70422F9E70193F6
:10413000002EFAD16279002AF2D1204605F095FDD1
:1041400020B1626A019B9A1A1E2A0CD96369002B5E
:10415000EBD16379002BE3D1204605F086FDC0F159
:104160000602D2B2DDE7AA6C91499A1A8A4218D2A5
:10417000E26D90499A1A8A4213D8D4E91A02D5E915
:104180001617D5E90FCE411A4FF009004FF003087A
:1041900062EB0702AEFB0007ECFB08078142BA4165
:1041A00001D305239CE02978276A02291FD008291A
:1041B0001DD005293FD001F0FD02042A0CBF0120CB
:1041C0004FF0FF30002FA1D10028D4BF00270127D6
:1041D00094F800E094F87820BE4559D00B2A5FD0BF
:1041E000D31EDBB20A2B76D87349CB5C9AE74FF02B
:1041F000FF3247B395F87130002B87D1002AD4BF26
:104200000022012223789A4217D1A378002B7FF451
:104210007DAFE368003B18BF0123002B7FF476AF2E
:10422000636DAEF1100E7345BBD8103323650123C7
:1042300085F871306AE70122DBE72379002B7FF4F0
:1042400065AF2369E6E794F878000828A9D195F8C6
:1042500071000028A5D0002AD4BF002201222078B6
:1042600082420CBFE2682269003A18BF0122002A8C
:1042700097D105290AD0082914BF03220922214613
:10428000284602B0BDE8F041FFF774BE0622F6E70B
:10429000022A05D0D31EDBB20A2B23D9052341E71E
:1042A000626D12B901297FF47CAF95F872201AB9BA
:1042B00001226B6585F872202278BA4218D1E26833
:1042C000002A48D1E27952BB6A6D9A1AC72A7FF652
:1042D0001DAF062304E0022A4FF005037FF422AF4E
:1042E00010221FE734490B2A08BF1022CB5C19E7C4
:1042F000226972B1A26B9A1A132AE5D901390829E9
:1043000000F29C80DFE801F0299A2B319A33519A10
:104310005A00227A002AD7D0E26A217901E0A26A03
:10432000A1780029D0D19A1A132ACDD9236D1BB1B7
:10433000626D93427FF635AF0023206284F87830B7
:1043400085F8703085F872306B6C5A1C01D00133DF
:104350006B640420DBE6626BCDE702228FE7D4E9D1
:104360001C010422C5E9180189E7052287E7D4E981
:104370001C21D5E91807904277EB010E01DB0723DA
:10438000AEE7121A61EB0701402A71F10000FFF459
:1043900008AF944576EB0101FFF403AF6A62D4E9FC
:1043A0001C010722C5E91A0169E7082267E700BF77
:1043B00040771B00BF27090069D10008D5E91A32F0
:1043C000D4E91C10994270EB0207D8DA5B1A62EB51
:1043D0000002402B72F10001FFF4E3AE9C4576EB46
:1043E0000202FFF4DEAE696AAB624A1C8B421A44D9
:1043F0002CBF5B1ACB1AB2F5487F2ABFC821042113
:10440000B2FBF1F19942BAD3EB6A5208AB602B6B65
:104410006A60EB60D4E91C23C5E90623012385F813
:1044200020302B69082101332B610A232B700023D4
:104430002046AB70236305F013FC67E608234FE7C3
:10444000014B1860704700BFB000002080B50546E2
:104450000E461746984604F0F3FA034607F0D2FEDC
:104460000446DFF81890424649F800303946304695
:10447000A84754F8090001F0BDFA00BF0800000089
:10448000034A0020536823F002035360704700BFC3
:10449000002004E0044A0020136843F01003136076
:1044A000024B034A1A607047002002403801002086
:1044B00000127A00F0B40C4B0C4E5F6A0C4BB34206
:1044C00003D36FF08500F0BC70475D68BD4209D32F
:1044D0001C693CB195F802C00579AC4502D1234670
:1044E000F0BC18472433EAE7000E002068020020E1
:1044F000440200202DE9F04705460E461746124CAF
:10450000DFF84880DFF84890444503D36FF085001A
:10451000BDE8F0876268D9F824309A4212D3A369C3
:1045200083B190782979884205D13A4631462846A8
:10453000BDE8F04718475279012A03D13A4631467F
:10454000284698472434DFE7440200206802002010
:10455000000E00202DE9F04105460E4617460A4C94
:10456000DFF82880444502D36FF0850009E06369D5
:104570000BB92434F6E73A463146284698470028D6
:10458000F7D1BDE8F08100BF44020020680200209E
:1045900010B5044601F084FD10F1780F00D050B939
:1045A000204605F0AEFD044AD2F8C43023EA0003E9
:1045B0000020C2F8C43010BD000E00200022024BC3
:1045C0001A605A60704700BFBB0E002070B50B4BDD
:1045D0000B4CA34201D3002070BD0022196A1E7F3C
:1045E0000439D5B2AE4201D82433F2E7013211F8D2
:1045F00032508542F5D10120EEE700BF4402002091
:104600006802002008B509480378C3F341130A3350
:1046100050F823303BB100F1080200F11001984737
:10462000C043C00F08BD1846FCE700BF000E0020C5
:1046300004282DE9F14F04460F46DFF8949016D078
:1046400001282DD1DFF88C8098F8B93043B300F001
:10465000FDFD214D4D4520D24FF0000AD5F820B088
:104660002B7F5FFA8AF6B34204D82435F2E7FFF7CE
:10467000A5FFE7E70BEBC606307901F011FD024616
:10468000307905F03EFDD8F8C430002A23EA000353
:10469000C8F8C4300AF1010AE2DA002388F8B93018
:1046A0000D4D4D4508D30B4B1B6A6BB13946204667
:1046B00001B0BDE8F04F1847EB681BB13A46214600
:1046C000284698472435ECE701B0BDE8F08F00BFDD
:1046D00068020020000E00204402002073B5C4B21E
:1046E00063060D468DF8074007D02046FFF76EFFA2
:1046F00078B10D4B93F8BA0058B120460A4E55B127
:1047000001F07EFCF3691BB108200DF10701984709
:10471000012002B070BD01F089FCF369002BF7D0D5
:1047200009200DF10701F2E7000E002073B586782D
:104730001E4C8DF800600379427943EA0223ADF8FC
:104740000230C378304603F003038DF8043005F0DF
:10475000D8FCD4F8C430054618420BD0304600F0DF
:1047600057FD3046FFF714FF07F0DEFA10B9962028
:1047700007F087FB684601F0F5FB10F1780F03D0D6
:1047800010B1002002B070BD9DF8000001F064FC83
:1047900010F1780F01D00028F3D10120D4F8C430F3
:1047A00084F8B9002B43C4F8C430EBE7000E0020B6
:1047B0002DE9F047A34E0446B3690F461546FBB9F1
:1047C000237803F01F03012B00F09D80022B00F0E3
:1047D000048133BB94F900002A680028617834DA38
:1047E000062912D008292BD0D9B901235170137092
:1047F00096F8C3305B0043F00103137002232AE1F3
:1048000098470028DCD100200DE06288100A011FC3
:104810000129844605D9072803D8716AD2B20C78D9
:104820001CB96FF01500BDE8F0874E78664503D1DE
:104830009A4200F00B8101332144F0E70B780AE142
:1048400096F8BA301370012305E101390829E8D838
:1048500001A353F821F000BFF148000823480008E5
:10486000FF480008234800087D4800082348000846
:10487000234800082348000889480008A07801F070
:1048800031FB0028BFD0CCE76388756A63BBFFF7B4
:1048900095FE638886F8BA30F369002BB3D0032005
:1048A00069499847AFE76B78042B10D0052B11D0DE
:1048B000022B04D16F796388BB4208BF01202B789B
:1048C0001D442B78002BEED10028AAD0DFE795F805
:1048D0000380F4E76388BB42F1D1B8F1000FEED159
:1048E0002846FFF723FFEAE7FF270020B846E8E75E
:1048F0006388012B95D1002386F8C33083E7638852
:10490000012B8ED1F8E796F8BA30D5F800C0002B0D
:1049100087D0756AA3882A4694F804E010780028A6
:104920003FF47FAF5178022904D192F80480F0451A
:1049300000F293800244F1E78CF800208CF801200B
:10494000396060E7154494E00B2A7FF46AAF0027D2
:104950004FF0FF08BA46C14606E06B78042B0FD033
:10496000052B21D02B781D442B78002BF5D1F36932
:1049700013B1514607209847002F7FF444AF50E70A
:1049800095F80280A38895F803909845EAD163884A
:104990009945E7D1B8F1070F1CD806EB0803AA46E2
:1049A000012783F8BB90DDE7A3884345DAD1A378DC
:1049B0004B450AD0AF78384600F02AFC3846FFF75E
:1049C000E7FDB0FA80F77F09CCE72846FFF7AEFE97
:1049D0000746C7E7AA460027C4E794F90020637892
:1049E000002A18DA002B7FF41CAF24792D686306A7
:1049F0000AD02046FFF7EAFD00283FF412AF96F8F0
:104A0000BA30002B3FF40DAF2946204605F081FD5A
:104A100000236B70F2E6012B08D0032B7FF401AF6B
:104A20006388002B7FF4FDAE012103E0618800293B
:104A30007FF4F7AEA088FFF751FE00287FF4E3AEC5
:104A4000EFE600BF000E0020BA0E00200228296009
:104A50007FF4F4AE4B883B60D5E694F900006278B1
:104A60000028BFF671AF002A3FF466AF0A2A7FF430
:104A7000D8AE2A78002A3FF4D4AE697804297FF4AE
:104A800061AFA9788B427FF45DAF072B8EBF002307
:104A90009B1993F8BB308CF80030D4E613B5164C54
:104AA000237DF3B9E26801AB8020A168019205F093
:104AB00037FB019AA3681344A360E3689B1AE36081
:104AC0006BB962B12369E2889A4208DD94F8C82084
:104AD00093FBF2F102FB11330BB90123237502B0F2
:104AE00010BD002380201A461946237502B0BDE888
:104AF000104001F0E9BA00BF000E0020002330B5DD
:104B000085B002460D460193002858D1002935D1C1
:104B100008220B460DEB020105F008FD002804DA1F
:104B2000802001F06DFA05B030BD2A4C029AC4E92C
:104B300003552260039ABDF80E30626004F138021A
:104B4000A2609DF908202575002A0ADB802B04D974
:104B5000802001F055FA0020E3E713B1C4E90333E4
:104B6000E1E7FFF74FFD0028DAD0E28823699A4297
:104B7000D4BFE260E360FFF791FFD4E7154C01ABCF
:104B8000D4E90215002D04DC05F0D0FC0028CADAB7
:104B9000C6E72A4605F0CAFC0028D9DB019AA368BB
:104BA0001344A360E3689B1AE360002BBBD104F1BC
:104BB0003803A360FFF726FD0028DCD1B0E780288A
:104BC000B1D1044BDA68002AD5D11B7D002BD2D19C
:104BD000A9E700BF000E0020054B064A58629A6202
:104BE000054A0020DA62054A1A63054A9A6170474D
:104BF000000E0020B1470008B544000855450008E4
:104C0000F54400082DE9F3410446474D4FF0FF33CA
:104C10004FF0FF32454803F0B3F995F8B830002B58
:104C20007BD16B6A83B142482C62E8616E6A01F005
:104C300053F901F0E9F8041E10DA3C4803F018FAC1
:104C4000204602B0BDE8F08100F0BEF8FFF7C4FFD7
:104C50006B6A002BE7D14FF0FF34EEE700F018FB52
:104C6000041EEADB7378012B5AD1F379002B57D05D
:104C70000026684685F8C830ADF802308DF804602B
:104C80008DF8006001F06EF9041ED6DB80276846BF
:104C90008DF8007001F066F9041ECEDB3046254920
:104CA00005F01DFC041EC8DB3846224905F017FC40
:104CB000041EC2DB204CDFF8848044451AD3002058
:104CC00001F0CAF9041EB8DBD5F8C430802043F0E7
:104CD0000103C5F8C43001F0BFF9041EADDBD5F8FF
:104CE000C430002443F48033C5F8C430012385F870
:104CF000B830A2E70026276A227FF3B29A4201D891
:104D00002434DAE707EBC30257F83310107905F0C3
:104D1000E6FB01360028EFD09DE76FF077048CE7C3
:104D20006FF0150489E700BF000E00206C01002021
:104D300031460008FD4A00084402002068020020B5
:104D400030B51F4B8BB005AA03F110051446186847
:104D50005968083303C4AB422246F7D11B781022AE
:104D60002370002101A807F0E8F91222002115485C
:104D700007F0E3F9102101A801F04CFD00281BDD2C
:104D80000828B8BF082001AB09381A1800200D49BF
:104D900012F8013F0AAC04EB131403F00F0328339D
:104DA0006B4414F8144C13F8143C013008280C70B0
:104DB0004B7001F10201EBD102480BB030BD00BFD6
:104DC00074D10008671800202DE9F04F714B87B0AF
:104DD00093F800B0BBF1000F03D06F4807B0BDE8F7
:104DE000F08F6D4C00264FF0011AB0463546B146A3
:104DF00023783BB9694B02349C42F3D10123654AC5
:104E00001370EAE76378052B1BD8DFE803F08C0307
:104E1000C18C1D39402304A88DF810B0ADF81230B4
:104E20008DF814B005F066FB40B1082304A8ADF876
:104E3000123005F05FFB08B1ADF812B0BDF81230CA
:104E4000E37123781C44D3E7E378002BF9D1A378EE
:104E50006BB108F101085FFA88F8F2E76B689C42D1
:104E600007D024354E4B9D42F8D30020B6E74D4D78
:104E7000F8E7AB68002BECD0414620469847E8E7BE
:104E8000002DF2D000222B7F9A42EED2296AA07820
:104E900001EBC2010B79984201D00132F3E70127FF
:104EA000E078FBB200F003008DF81400207994F84C
:104EB00005C040EA0C20ADF8120094F90200002869
:104EC00026DA4FF0010C07F110000CFA00F010EA9E
:104ED0000A0F24D143F080008DF8100004A8CDE91A
:104EE0000213019205F006FBDDE90121039BB0B935
:104EF0009DF8102012F0800FA2700A714FF001028D
:104F00001DBF1033DBB29A40BA404AEA020A98E762
:104F10000120B84010EA0A0F01D11846DCE701373A
:104F2000102FBDD1B9E7032E1AD1FFF709FF0746AD
:104F300050B1FBF7A9FA024630B11028A8BF1022E1
:104F40003946A01C07F0EBF86FF002012378091B2B
:104F5000E21804EB5303D14213D50136F6B270E7E1
:104F6000002EF1D1B9F1000F3FF47FAFA4EB09039C
:104F700089F80230C3F3072389F8033089F80480E5
:104F8000EBE702F801BC13F8010902F8020DE2E7B1
:104F9000A14656E766180020800100204302002049
:104FA0006802002044020020094B00211A4610B577
:104FB0001C78844204D15C6814B102EB811010BDEE
:104FC0000131042903F14003F2D10020F7E700BFCB
:104FD000CC0E00202DE9F34150F8283C0446103354
:104FE00010F82C6C0AD1036950F8202C980736D59C
:104FF000D2B9590715D5002344F8283C54F8283C69
:1050000010330BD054E9077554F8148C06F08CFE5D
:1050100000284FD021462E4806F06AFE02B0BDE8B7
:10502000F08143F004032361304654F8241C01ABA3
:1050300005F076F810B16FF01503DDE7019A54F82A
:10504000243C134444F8243C54F8203C9B1A44F874
:10505000203C54F81C3C134444F81C3CCEE730463A
:1050600054F8241C01AB01F081F80028E3D1019D24
:1050700054F8243C2B4444F8243C54F8203C5B1B5B
:1050800044F8203C54F81C3C2B4444F81C3C002DB4
:10509000B1D0304605F058FAB5FBF0F303FB1055DC
:1050A000002DA8D154F8203C002BA4D0304601F0AC
:1050B0008BF8A3E744F8180CA4F1100003F014F8DF
:1050C000002DABD0424639463046A847A6E700BF80
:1050D000400B00204B1E012B73B506460D460FD822
:1050E000FFF762FF044668B9012D09D101AB012227
:1050F00030460DF1030101F039F8019B002BF5D189
:1051000002B070BD06F010FE04F12C0108B1012DB3
:1051100005D1084602B0BDE87040FFF75BBF034809
:1051200002B0BDE8704006F0E3BD00BF400B0020B8
:105130002DE9F74F064615469846019105F036F8D9
:10514000044600285BD1EFF3118A102383F3128801
:10515000BFF36F8FDFF8ACB000220023584602F097
:10516000E7FF70B9DFF8A090A70109EB841463682A
:1051700013F1100F14D10193584602F0B5FF019BB3
:1051800006E00134042C0BF1400BE5D16FF00B036A
:105190008AF31188BFF36F8F184603B0BDE8F08F14
:1051A000019B2061C4E902350C9B304663610D9B75
:1051B00009F80760A3616FF00F03C4F83C806360D7
:1051C00005F0C2F958B1304605F0BEF9B5FBF0F371
:1051D00003FB10551DB1E36B43F00403E36318F0C8
:1051E000020F07D007F12C010848494406F080FD62
:1051F0000023CDE7304600F0E7FF0346C8E76FF035
:105200000F03C9E7E80E0020CC0E0020400B002061
:1052100010B5EFF31184102383F31288BFF36F8F5F
:10522000FFF7C2FE50B14368103307D16FF08B0314
:1052300000F12C014360044806F05AFD84F3118804
:10524000BFF36F8F10BD00BF400B0020F8B50425E1
:1052500010270D4CEFF3118687F31288BFF36F8F81
:105260006368103307D16FF08B030848636004F163
:105270002C0106F03DFD86F31188BFF36F8F013DD1
:1052800004F14004E6D1F8BDCC0E0020400B002014
:1052900070B50025094C0A4E3146204606F00CFD3B
:1052A0000122A4F110001146013506F0C9FC042DBD
:1052B00004F14004F0D1002070BD00BFF80E0020C2
:1052C000D54F000870B504460E46017915481546BD
:1052D00004F049FF10B394F900206378002A16DB2C
:1052E000202B04D0222B0ED06FF085000AE02B6813
:1052F0001A6840F8102C9A8820F80C2C9B7900F83A
:105300000A3C002070BD638800F8093CF9E7212BB6
:10531000EAD10723103828603360F2E76FF01200FB
:10532000F0E700BFCC0F0020014608B5034804F0A9
:1053300027FF10B1012300F8073C08BDCC0F002067
:105340000123016981F84B300B6833B191F8493082
:105350001BB10248083106F0CBBC7047400B00205F
:105360000123016981F84A300B6833B191F8483064
:105370001BB10248083106F0BBBC7047400B00204F
:10538000012370B582F8483013680D4614463BB1CE
:1053900092F84A3023B10E4802F1080106F0A8FC49
:1053A000D4F890301A699B689A4205D17DB904F10E
:1053B00018014FF47A7204E004F11801002DF8D0BE
:1053C0000022BDE870400023014803F00BB870BD17
:1053D000400B002070B5056995F89E00E0B195F886
:1053E0009F30D3B985F84830EFF31186102383F34B
:1053F0001288BFF36F8FD5F8900004F011FE0446B9
:1054000086F31188BFF36F8F00220023044805F153
:10541000180102F0E7FF204670BD0020FCE700BF46
:10542000400B0020002103460C4AA0F848101068E9
:1054300083F89C10C3F8940090889279A3F89800A0
:1054400083F89A2083F89B104022A3F89E1083F8DB
:10545000A01003F14C0006F070BE00BF70C500083C
:10546000F0B5D0F88C3004465B6885B01B6A1F7DB0
:10547000384604F09BFE0646F8B994F88630E3B14E
:105480004FF48062A06F03A904F0E9FD0546A0B1C6
:105490008306A4F1180384F830600193084B08BF19
:1054A00000F1FF35039900932A4602233846FFF79F
:1054B0003FFE2946A06F04F0EEFD05B0F0BD00BF31
:1054C00081530008002310B50469C4F8A8300C4BC0
:1054D000C4F8A400596804F1A80269B9C3E900221C
:1054E00004F10800074906F0E7FB04F1180006493B
:1054F00006F00EFC002010BD0A605A60F0E700BF05
:10550000CC0F0020D7A100086154000830B54FF43B
:1055100000334268056942F2A10085B0CDE901037C
:10552000002385F89D30106AADF80C100A2200792E
:1055300001A904F0F5FD054C95F89D3023B9012033
:1055400006F029FB013CF7D105B030BDA186010072
:10555000002373B5102504698DF8071084F84830CE
:10556000EFF3118685F31288BFF36F8F0122D4F811
:1055700090000DF1070104F053FD86F31188BFF38D
:105580006F8F01280AD006F0CFFB10B994F8A13034
:105590006BB9094B1A780AB901221A700A22002342
:1055A00004F11801054802F01DFF02B070BD002192
:1055B0000A2003F027FAD3E779180020400B0020D7
:1055C00037B514460A1E054620DDD4F88C0004F1D8
:1055D0004C0104F025FD012384F8493023683BB1D8
:1055E00094F84B3023B1114804F1080106F080FB18
:1055F000D4F88C104B684A699A1ACB699B1A3F2BD6
:1056000004D8012384F8A03003B030BD94F89E3054
:10561000002BF9D0064B4022009328460123019429
:1056200004F14C01FFF784FDEEE700BF400B0020C2
:10563000C1550008F7B50D4601461D4804F088FD28
:10564000044610B3064656F8A439691E5F6805295A
:105650001BD8DFE801F01C1A031C222610F8061CD8
:1056600099B9012300F8063C3B6A3246187BFFF7E4
:10567000A7FF14F85C2C42B93B6A1146187D0D4B0C
:10568000019600930223FFF753FD03B0F0BD3046AF
:1056900003B0BDE8F040FFF7C5BE012304F8053CA8
:1056A000F3E710F8053C002BEFD00023F6E700BF2E
:1056B000CC0F00208153000837B50024084D4FF06F
:1056C000FF334FF4806228460649009402F04CFEF6
:1056D0000549284606F02EFB204603B030BD00BF2A
:1056E000400B0020801C002093D1000808B5034B1C
:1056F0001B689847BDE8084000F026B80C01002060
:1057000030BFFFF7FDBF00BF2DE9F04105460B4E4E
:10571000DFF82C80324606EB0807CC1B20460949EF
:1057200006F0FDFCA01942460021083C06F005FDEC
:105730006C6607F10800BDE8F08100BF00000000C2
:105740000C00000010C50008074A936893F90E107A
:10575000002907DB526993421FBF044A536843F094
:1057600080535360704700BF2C18002000ED00E00C
:10577000134B9A6A12F0007F9A6A14BF1E201D20F4
:1057800012F0807F9A6A18BF1F2012F4002F9A6AC5
:1057900018BF212012F4802F9A6A18BF222012F419
:1057A000003F9A6A18BF232012F4803F9A6A18BFFC
:1057B00024206FEA02426FEA12429A62704700BFE9
:1057C00000ED00E010B5164B9A6A9C6A12F4805FF7
:1057D00014BF1722162214F4006F9C6A18BF1822F7
:1057E000A40509D59A6B9A6A120404D518B19A6A6D
:1057F00022F400429A621922094B986A10F4806FD1
:10580000986A18BF1A2210F4807F986A40F47F408B
:1058100098624FF000030CBF10461B200B7010BDA8
:1058200000ED00E010B5154B0246986A9C6A10F036
:10583000100F14BF1120102014F0080F9C6A18BF1D
:105840001220A40709D5586B986A000604D51AB12E
:105850009A6A22F080029A621320084B9A6A12F028
:10586000010F9A6A18BF1420D20658BF9A6A9A6A22
:1058700042F0FF029A6200230B7010BD00ED00E0C1
:10588000F0B5474B04465B6800258BB0C3F30803B3
:1058900085F31188BFF36F8F02F07F40B0F17F4F27
:1058A00011D102F00C0008280DD010074CBF0C4697
:1058B00001250022033B8DF80720032B05D8DFE8E4
:1058C00003F02462665F2C46F3E700239DF807206F
:1058D000CAB902AE04F12007324620686168083474
:1058E00003C2BC421646F7D1099A002D53D0C2F329
:1058F000080121B96FEA52226FEA42220992184642
:1059000002A904F07CFD0BB0F0BD254BDA6A9107CB
:10591000DBD4DA6A002AD8DBDA6A5200D5D55A69B4
:10592000A16942F480725A61BFF34F8FBFF36F8F4A
:105930005A6931F8021C22F480725A61BFF34F8F0A
:10594000BFF36F8F4DF60272914209D09A6AD2B2BC
:1059500042B101200DF10701FFF764FF0346B5E7EF
:105960002368B3E79A6A12F47F4F05D001200DF146
:105970000701FFF727FFF1E79B6AB3F5803FA4D348
:10598000FFF7F6FEEAE700200DF10701E4E700204B
:105990000DF10701EDE722F4FF7222F00102ADE7FD
:1059A00000ED00E0024A536943F010035361704771
:1059B00000ED00E0EFF30880EFF3098101B57246D6
:1059C000FFF75EFF01BD00BF102080F3118808487B
:1059D0004FF40061401880F30988EFF3148002212E
:1059E000084380F31488BFF36F8F00F0B3F8000012
:1059F00080200020084B9B6883420BD1EFF3058386
:105A000043B1064B5A6842F080525A605A6A22F4F7
:105A100000425A6206F046BA2C18002000ED00E061
:105A20006FF00A01084A9368D966084998664B687E
:105A300043F080534B60002383F31188BFF36F8FD3
:105A40009368D86E704700BF2C18002000ED00E06E
:105A5000EFF31183102383F31288BFF36F8F4FF09E
:105A60000061084A53699360074A5160596E074ABA
:105A7000116000219A6E996682F31188BFF36F8FCF
:105A8000704700BF2C18002000ED00E0D40F00206C
:105A90000B498A684FF030001044EFF3098C80E81E
:105AA000F01F74467046FFF7D3FFA64604498A6884
:105AB00002F1300090E8F01F8CF309887047000075
:105AC0002C1800201EF0040F0CBFEFF30880EFF33A
