:020000040800F2
:1000000080390020295A00084D570008155A000869
:10001000155A0008155A0008155A0008000000007B
:10002000000000000000000000000000255B000848
:10003000155A000800000000F15A0008B96D0008C8
:10004000815C0008815C0008815C0008815C00081C
:10005000815C0008815C0008815C0008815C00080C
:10006000815C0008815C0008815C0008815C0008FC
:10007000815C0008815C0008815C0008815C0008EC
:10008000815C0008815C0008815C0008815C0008DC
:10009000815C0008815C0008815C0008815C0008CC
:1000A000815C0008815C0008815C0008815C0008BC
:1000B000815C0008815C0008815C0008815C0008AC
:1000C000815C0008815C0008815C0008815C00089C
:1000D000815C0008815C0008815C0008815C00088C
:0C00E000815C0008815C0008815C000865
:0400EC00FFFFFFFF14
:1000F0007BB972B90029BEBF00204FF0004106E075
:1001000008BF00281CBF6FF000414FF0FF3000F027
:1001100057B8ADF1080C6DE904CE002909DB002BBE
:100120001ADB00F04FF8DDF804E0DDE9022304B04B
:100130007047404261EB4101002B1BDB00F042F8AD
:10014000DDF804E0DDE9022304B0404261EB410147
:10015000524263EB43037047524263EB430300F0A8
:1001600031F8DDF804E0DDE9022304B0404261EB40
:1001700041017047524263EB430300F023F8DDF87E
:1001800004E0DDE9022304B0524263EB430370470D
:1001900053B94AB9002908BF00281CBF4FF0FF31EE
:1001A0004FF0FF3000F00CB8ADF1080C6DE904CE53
:1001B00000F008F8DDF804E0DDE9022304B0704740
:1001C000704700BF2DE9F04786468C460846154625
:1001D00074461946089E002B40F0C2808542B2FA50
:1001E00082F245D94AB1C2F1200300FA02FC2EFA8C
:1001F00003F3954043EA0C0C94404FEA154EBCFBC8
:10020000FEF8A8B20EFB18CC08FB00F9230C43EA59
:100210000C43994528D9EB1808F1FF3704D29945CA
:1002200002D9A8F102072B44A3EB0903B3FBFEFCA0
:100230000EFB1C330CFB00F0A4B244EA0344A042C2
:1002400014D92C190CF1FF3304D2A04202D9ACF11D
:1002500002032C44241A43EA07401EB10023D44071
:1002600034607360BDE8F0874746DDE76346F1E739
:1002700092BB0121431B4FEA154EB3FBFEFCAFB20C
:100280000EFB1C330CFB07F8200C40EA0343984597
:1002900062D9EB180CF1FF3004D2984502D9ACF1C9
:1002A00002002B44A3EB0803B3FBFEFC0EFB1C3344
:1002B0000CFB07F7A4B244EA0344A7424ED92C1919
:1002C0000CF1FF3304D2A74202D9ACF102032C4453
:1002D000E41B43EA0040C0E7C2F12003954020FA46
:1002E00003F12EFA03F34FEA154EB1FBFEFC9040EA
:1002F0000343AFB20EFB1C100CFB07F8190C41EACC
:100300000041884504FA02F422D969180CF1FF3043
:1003100004D2884502D9ACF102002944A1EB0801BE
:10032000B1FBFEFC0EFB1C110CFB07F79BB243EA72
:1003300001439F420ED9EB180CF1FF3104D29F42CA
:1003400002D9ACF102012B44DB1B41EA004192E7E8
:100350006046E3E76146F7E76046A3E76346B7E731
:10036000834206D916B9002108467BE7C6E900E0BA
:10037000F9E7B3FA83F78FB9834201D3724508D8FE
:10038000BEEB020460EB030301209C461EB9002172
:1003900068E73846FAE7C6E9004CF8E7C7F1200CF1
:1003A000BB4022FA0CF41C434FEA144920FA0CF328
:1003B000B3FBF9F8B8402EFA0CF101430EFA07F539
:1003C00009FB18301FFA84FE08FB0EFA0B0C43EAF7
:1003D00000439A4502FA07F240D9E31808F1FF30CA
:1003E00004D29A4502D9A8F102002344A3EB0A03E0
:1003F000B3FBF9F809FB183308FB0EFE89B241EA9A
:1004000003418E452CD9611808F1FF3304D28E4583
:1004100002D9A8F10203214443EA0040A0FB02985C
:10042000A1EB0E014145CE46434602D306D14D45D0
:1004300004D2B9EB020E68EB04030138002EA6D0FB
:10044000B5EB0E0261EB030101FA0CFC22FA07F393
:100450004CEA0303F940C6E9003198E74046C5E796
:100460004346D9E710F8012B11F8013B012A28BFB8
:100470009A42F7D0D01A7047034611F8012B03F8BF
:10048000012B002AF9D17047034613F8012B002AEB
:10049000FBD1181A013870472DE9F04F0D234FF0AA
:1004A0000009EBB011AE07AF0446154608460093AD
:1004B000C0223346CDF8089001973AA909F0A6FB6F
:1004C00008B9AC4967E0AC4BD6F800A0AB49504640
:1004D000C4F83835FFF7C6FFD7F8008086460028F5
:1004E0004AD1B8F1020F34D1A54D0DF1200C0FCD3A
:1004F000ACE80F000FCDACE80F0055F8043B0DF150
:100500007808CCF80030C4460FCDACE80F000FCD12
:10051000ACE80F002B687546D6F80490CCF8003094
:1005200008AE484656F8041BFFF79CFF68B958F818
:100530002550204609F0CCFA80B12946204609F022
:10054000D1FA00206BB0BDE8F08F0135092DE8D15C
:10055000B7E7B8F1010FB4D18A4DEAE73B68022B47
:1005600007D005228849D4F834050BF092FD002805
:10057000E7D0C4F83455E4E7B8F1010F0FD1504685
:100580008249FFF76FFF0028DBD0702249461EA882
:100590000BF042FE7E49204609F02AFBD2E770228A
:1005A00049461EA80BF038FEB8F1010FF2D920AB76
:1005B0004FF0FF3202930023CDE9002301220023F4
:1005C000706803F077FC0028E4D0D6F80080714909
:1005D0004046FFF747FF98B93B68022B10D12046F1
:1005E00009F076FA18B120466B4909F07BFA209B96
:1005F000C4F820340023C4F82434C4F82834A0E715
:10060000D4F82034002BC5D0DDE92012002A08BF21
:100610009942BFD140466149FFF724FF814678BB2C
:100620003B68032B2CD122AB4FF0FF320293002307
:10063000CDE9002301220023B06803F03BFC38B170
:10064000DDE92213D4F824244B4508BF914201D0A0
:100650005349A0E794F8DB34C4F82C54002B3FF442
:1006600070AF94F83035022B7FF46BAF7822D4F85A
:10067000C83402FB0343C3F84C52C4F8E05160E7AE
:1006800040464849FFF7EEFE8146002861D13B68AD
:10069000042B5ED122AB4FF0FF3202930023CDE951
:1006A000002301220023B06803F004FC0028CFD00F
:1006B000DDE92223D4F82814914279EB0303C7DA49
:1006C000204609F005FA08B1374964E794F8DC34AC
:1006D0000BB936495FE72946204601F01BFF074664
:1006E00008B1014657E724AB4FF4FA720293002396
:1006F000CDE9002301220023F06803F0DBFB08B9F9
:100700002B4948E7229BC4F83054C4F82834C4F875
:100710002434249BC4F82C54A4F85838D4F86833F3
:10072000A4F85A78C4F83C38D4F86C33C4F85C7830
:10073000C4F84038D4F87033A4F86078C4F844386A
:100740000123A4F8663884F830351A4BC4F83435E0
:10075000F7E640461849FFF785FE8246002840F03C
:100760006B813B680B2B40F0678194F866383BBB8C
:10077000124910E7DDC900081FCC000822CC000890
:10078000E8C5000810CC000827CC00082DCC0008D4
:1007900034CC00083CCC000842CC0008D8C9000882
:1007A00052CC000856CC00085BCC0008F8C9000801
:1007B000F6CA000860CC00086DCC000871CC0008B7
:1007C00022AB4FF0FF3202930023CDE90023012238
:1007D0000023B06803F06EFB0028C9D0DDE92213C6
:1007E000D4F82424534508BF9142C1D124AB40F230
:1007F000F31202930023CDE9002300220023F068C6
:1008000003F058FB0028B3D0DDE92412B4F85A38BD
:10081000524508BF9942ABD1B4F858289A42A7D99B
:10082000B4F860381F2BA3D81822514608A80BF043
:10083000F3FC55460DF150090DF1200826AF04F5E3
:100840005C7604F55F7B0023AB4A0297CDE9002379
:100850004FF0FF33A94A59F8040FBA4603F02AFBB8
:1008600008B9A74997E656F8043FDAE90020991835
:1008700040EBE370D6F8C834DFF87CC2CA1ADFF860
:1008800084E260EBE37311EB0C0C40F10000E645F1
:100890004FF0000C7CEB000C07F10807E1D3002BB4
:1008A00002DA524263EB43030020DFF85CC2944556
:1008B00070EB030CD5DB95429841B8BF1546B345A4
:1008C00048F8041BBFD1002D3FF41AAF089AD4F8A2
:1008D0003C389A427FF414AF4FF47A72204608A94C
:1008E00001F0D2FE00283FF40BAF2CAB4FF4C862EE
:1008F000029300231898CDE900233222002303F04D
:10090000D9FA08B9814946E62EAB02931998DDE978
:100910002C23CDE900233222002303F0CBFA002858
:10092000F0D030AB02931A98DDE92C23CDE90023F7
:100930003222002303F0BEFA0028E3D032AB029348
:100940000023734A1B98CDE900233222002303F0D1
:10095000B1FA0028D6D0B4F85A3823B9DDE92E21EF
:10096000323A0A43CED1DDE9306CB4F8582801336D
:10097000934204D1A6F1320353EA0C03C2D1DDE95C
:100980002E13DDE9322701FB03FEA1FB013006FB3C
:100990000CFC00EB4E00A6FB066E9B1B0EEB4C0CFA
:1009A00060EB0C00002802DA5B4260EB4000A5FB24
:1009B00002C605FB07661CEB0C0C76419C45864184
:1009C000A0DB2C9809F0E3F8329A064630992C986F
:1009D00009F0DDF80644AE4294D82C9BB4F8607858
:1009E000ADF830302E9BB4F85E58ADF83230309B05
:1009F0003D44ADF83430329B05F01F050B931823AE
:100A000003FB054508AE05F23C550FCE0FC596E831
:100A1000030085E80300B4F85A3801370133A4F81D
:100A20005A3808AB03CBA4F86078C4F83C08C4F883
:100A30004018C4F8442884E540463649FFF712FDC3
:100A4000002841D13B68032B3ED194F866380BB99E
:100A50003149A0E594F86778002FF9D122AB4FF027
:100A6000FF3202930023CDE9002301220023B06866
:100A700003F020FA0028EBD0DDE92213D4F8242477
:100A8000BB4208BF9142E3D1B4F85838B4F86028AB
:100A9000202B28BF20239A42DAD32946204601F092
:100AA00039FD014600287FF476AD2046C4F8305465
:100AB000C4F82C5401F0DCFF00283FF421AE174BA2
:100AC0000120C4F834353DE540461549FFF7CAFC1E
:100AD000002854D13B68042B51D1B56811492846F0
:100AE000FFF7C0FC20B328460F49FFF7BBFC0028E6
:100AF00043D00E494FE500BF00093D0000F7C2FF9B
:100B00007FCC000800127A0040420F0086CC00081B
:100B1000400D030093CC000896CC0008A8CC000838
:100B2000B5CC0008BACC0008BDCC0008C0CC000889
:100B3000012524AB012202930023CDE900230022EA
:100B40000023F06803F0B6F90028D2D0204608F060
:100B5000BFFF0028CDD194F8DD34002BC9D1DDE9E9
:100B600024210A4314BF012200220320C4F8D054D8
:100B700084F8DE2484F8DC34E4E40225D9E7404636
:100B80009549FFF76FFC002836D13B68042B33D121
:100B9000B76892493846FFF765FC054660B13846AC
:100BA0008F49FFF75FFC30B138468E49FFF75AFC9A
:100BB00000B38D49EFE4012524AB01220293002309
:100BC000CDE9002300220023F06803F073F9002828
:100BD000EFD0204608F07CFF0028EAD1DDE924327E
:100BE000134314BF01230023254485F8D43484F82B
:100BF000DC04A6E40225DFE740467C49FFF732FC2F
:100C0000002832D13B68042B2FD1204608F060FF2A
:100C1000054608B17649BEE422AB012202930023C7
:100C2000CDE9002300220023B06803F043F9002837
:100C3000F0D024AB4FF4807202930023CDE900235F
:100C400010220023F06803F035F90028E2D0DDE936
:100C50002232134314BF0123002384F8A834249BB9
:100C600084F8DC54C4F8AC346BE440466149FFF7C7
:100C7000F9FB002800F0988040465F49FFF7F2FB3F
:100C8000002800F0918040465C49FFF7EBFB00280C
:100C900000F08A8040465A49FFF7E4FB002800F044
:100CA000838040465749FFF7DDFB8146002800F06E
:100CB000148340465449FFF7D5FB804600287FF453
:100CC00000AC3B68072B7FF4FCAB22AB4FF0FF324C
:100CD00002930023CDE9002301220023B06803F032
:100CE000E9F800283FF4B4ACDDE92223D4F8281455
:100CF000914278EB0303BFF6ABAC204608F0E8FE68
:100D000000287FF4E1AC94F8DC34002B3FF4E1AC34
:100D10002946204601F0FEFB014600287FF43BAC4B
:100D200006460DF14C0A24AF04F55C7B0023374ADC
:100D30000297CDE900234FF0FF33354A5AF8040FEC
:100D4000B84603F0B7F800283FF48BADD8E900327D
:100D50004FF000095BF8040F2C49C31842EBE07216
:100D600058182C4942F10002814279EB020207F146
:100D70000807FFF476AD0DF1200848F8263001365B
:100D8000032ED3D12AAB4FF4C862029300231798E5
:100D9000CDE900233222002303F08CF8002840F034
:100DA0002A831D49FFF7F7BB204608F091FE002873
:100DB0007FF48AACD6F800900E494846FFF752FB04
:100DC000D7F800800546002840F0A580B8F1090F4B
:100DD00026D01249FFF7DFBBCECC0008D2CC0008EA
:100DE000BACC0008BDCC0008D4CC0008E1CC000887
:100DF000E8CC0008F8CC0008FDCC000802CD0008C3
:100E000007CD00080CCD000850CD000800093D00BA
:100E100000F7C2FF00127A00D5CA000853CB0008C1
:100E200022AB02930023B64ACDE900234FF0FF33F3
:100E3000B44AB06803F03EF80028CAD024AB02934D
:100E4000ADA3D3E90023CDE900234FF48062002352
:100E5000F06803F02FF80028BBD04FF00009DFF84E
:100E6000A88226ABCDE9008902934FF4806200236B
:100E7000306903F01FF80028ABD0CDE9008928AB1A
:100E800002934FF480620023706903F013F8002886
:100E90009FD04FF020084FF0000916AF2AAECDE9E1
:100EA000008902960122002357F8040F03F002F88C
:100EB00058B1D6E90020531E40F1FF31134001EA3A
:100EC0000002134306F1080602D09049FFF763BB06
:100ED0000135032DE3D1229BC4F8F033249BC4F8E1
:100EE000C0332A9BC4F8CC33269BC4F8C4332C9B54
:100EF000C4F8D033289BC4F8C8332E9BC4F8D4332D
:100F0000D4F8CC3443F00103C4F8CC34002384F883
:100F1000DC34FFF716BB48467D49FFF7A3FA0028EB
:100F200062D1B8F1070F02D07A49FFF734BB02252E
:100F30004FF000094FF0FF3BDFF8DC81DFF8DCA168
:100F4000CDE900891EAB03EBC503029352465B4615
:100F500056F8250002F0AEFF10B97149FFF71BBB30
:100F60000135062DECD12AAB02930023644ACDE96A
:100F7000002300220023B06902F09CFF88B3DDE962
:100F80002271DDE924030025C21B63EB01036549DF
:100F9000654E521863F10003964275EB0303C3D309
:100FA000C4F8D873DDE926730593DDF814C0C4F8DE
:100FB000E003DDE92803C21B63EB0C03521863F165
:100FC0000003964275EB0303AED32A9BC4F8DC738F
:100FD000C4F8F433D4F8CC34C4F8E40343F0020387
:100FE00092E75249FFF7D7BA48465149FFF73AFA14
:100FF000002876D1B8F1050F5AD14FF00009DFF87B
:10100000188122ABCDE900890293444A4FF0FF33A7
:10101000B06802F04FFF00284AD0CDE9008924AB28
:1010200002933E4A4FF0FF33F06802F043FF00287E
:101030003ED026AB029300233E4ACDE90023642232
:101040000023306902F036FF90B3DDE92202D4F8C4
:10105000D83303F5FA63D9178342914128DAD4F8DB
:10106000E033A3F5FA63D91798428A4120DADDE923
:101070002432D4F8DC1301F5FA61CD179942954179
:1010800016DAD4F8E413A1F5FA61CD178B4272EBAE
:1010900005050DDA42F20F7144F61F66591842F148
:1010A0000005B14275F1000505D22349FFF773BA77
:1010B0002249FFF770BA002A194602DA594262EB58
:1010C00042021F4D8D424FF000019141EDDBC4E91A
:1010D000FA03269BC4F8F833D4F8CC3443F0040365
:1010E00012E7A8F10803012B2ED9B8F10B0F2BD072
:1010F0001449FFF750BA00BF00E1F50500000000F9
:1011000080841E00807BE1FF40420F0011CD00086B
:10111000FDCC000823CD000820BF0200E040FDFF09
:101120001BCD0008F0D8FFFF3057050021CD000887
:1011300002CD0008A08601002DCD000828CD0008B2
:10114000109802003BCD000822AB4FF44872029386
:101150000023CDE9002364220023B06802F0AAFE38
:101160000028C5D024AB4FF4C85202930023CDE928
:10117000002364220023F06802F09CFE0028B7D010
:101180004FF00009DFF8CC8226ABCDE9008902934D
:101190004FF480720023306902F08CFE0028A7D043
:1011A000CDE9008928AB02934FF480720023706967
:1011B00002F080FE00289BD04FF400584FF0000949
:1011C000CDE900892AAB029320220023B06902F006
:1011D00071FE00288CD0CDE900892CAB029320222F
:1011E0000023F06902F066FE002881D0DDE92A03C1
:1011F000DDE9261288429341BFF67AAFDDE92C0380
:10120000DDE9281288429341BFF672AF3B68082B94
:1012100047D83B680B2B1CD130AB4FF4C86202930C
:1012200000231A98CDE900236422002302F042FE35
:1012300000283FF45DAF32AB02931B98DDE9302309
:10124000CDE900233222002302F034FE00283FF4CF
:101250004FAF269A229BC4F81024289A2499C4F8E8
:1012600014242A9AC4F8FC33C4F818242C9AC4F81D
:101270000814C4F81C24D4F8CC2442F00802C4F8A2
:10128000CC24079A082A1AD92E990B2AC4F80C14D0
:101290001ED0C82BC4F8003428BFC823C4F80434B7
:1012A00034E62EAB0293DDE92423CDE9002332227C
:1012B0000023306A02F0FEFD0028AAD118E7D4F816
:1012C0000C248A4294BFC4F80C24C4F80C14E0E740
:1012D000309BC4F80034329BE0E73B68032B7FF47B
:1012E000E8AC22AB4FF0FF3202930023CDE900239C
:1012F00001220023B06802F0DDFD00283FF4A8A918
:10130000DDE92223D4F82814914279EB0303BFF6D8
:101310009FA9204608F0DCFB00287FF4D5A92946C8
:10132000204601F0F7F8014600287FF434A9D4F8EC
:10133000CC340F2B03D1D4F84034013302D14649C9
:10134000FFF729B9229B0122C4F82834C4F82434B9
:101350004FF0FF33C4F80835002384F8DB2422461D
:10136000C4F83054C4F82C54C4F81035C4F8F03420
:10137000C4F8EC3484F8DC3484F8A934A4F8AA3432
:10138000C4F8C434C4F8C034C4F8B433C4F8B833AF
:10139000C4F8BC33C4F8A833C4F8AC33C4F8B033D1
:1013A00004F5B47182F8013282F8003282F8023218
:1013B00082F82032C2E9893378328A42F2D120465B
:1013C00001F028F9D4F88424D4F88034002A02DA11
:1013D0005B4262EB420221498B4272F1000202DB66
:1013E0001F49FFF7D8B82B4601220021204601F003
:1013F000B3FBFFF7A7B84FF47A724146204601F0DD
:1014000043F900283FF4CDAC229B4146C4F8283470
:10141000C4F824344FF0FF332046C4F808352A9A24
:101420004B46C4F83054C4F82C54C4F8109501F05D
:101430007FFA022802D10B49FFF7ADB894F8DA140D
:10144000094B0A4A002918BF1346C4F83435FFF780
:1014500079B800BF40420F0042CD000801000004EF
:101460005CCB000855CD0008E0CA000818CC000885
:1014700008B505F067FD05F065FD084B1B68C01A4F
:10148000B0F5616F08D24823B0FBF3F0BDE8084027
:10149000C0F132000AF016BC08BD00BFF40D0020F8
:1014A00038B5074B1B7823B1064D441E14F8011FB5
:1014B00001B938BDAB6803485B689847F6E700BFE1
:1014C0006418002024C400081FB500230C460293B2
:1014D000174B184A19680023A0FB0101FEF758FEBC
:1014E000154B002C019314BF0023032301380090F7
:1014F000039312480099836842681268914214D895
:1015000069469B69984710F13E0F09D154B90C4ABE
:101510001368591C1CBF01331360002004B010BDB8
:101520000028FAD0074B1860F8E76FF01500F9E7CC
:10153000FC0D002040420F009D1800084CC400081C
:10154000EC0D0020E00D00202DE9F0430025A84619
:10155000144E154F85B03068CDF80C80836803A910
:101560005B6898470446D8B9039C96F80490337B8F
:1015700024FA09F9DC4009F0010904F0010408F03B
:10158000FAF92946009023464A463846013500F0CC
:1015900029FE032D06F11006DDD105B0BDE8F0836C
:1015A0008146ECE748C60008D80200202DE9F04744
:1015B0001D481E4F83685B68984700221C4B1A70B9
:1015C0003B680BB1FFF754FF00251A4CDFF8688029
:1015D000DFF86890DFF868A00021204608F0B7F92E
:1015E000064602200AF06EFB56B1D8F80030B3B1BF
:1015F00001235146114889F8DD3408F073FA05E0FB
:101600002179206808F092F90028EED10135032DE8
:1016100004F11804E0D100233B60BDE8F087042307
:10162000C8F80030E4E700BF4CC40008E80D002013
:101630006518002078C60008E40D0020D8020020BC
:10164000A6C9000808B50146034808F04BFABDE8F2
:101650000840FFF7ABBF00BFD802002010B5EFF382
:101660001184102383F31288BFF36F8F032807D1EF
:1016700001220C4B1A7084F31188BFF36F8F10BDD9
:101680000628F5D010F0FA00F5D1074A054B18707E
:10169000136801331360054BC3F820040448FFF7B7
:1016A000D1FFE8E764180020F80D0020D8020020E0
:1016B000B7C900080122034B034883F8DD24FFF774
:1016C000C1BF00BFD8020020C0C9000838B50D4610
:1016D00001790068144608F029F9A8420CD0074B9C
:1016E0001A6802B91C600122054B064883F8DD2404
:1016F000FFF7A8FF002038BD0120FCE7E40D002023
:10170000D8020020A6C9000870B505460E4614464A
:1017100008F01DF960B10B4B1A6802B91C60012278
:10172000094B0A4883F8DD24FFF78CFF002070BDC9
:1017300002200AF0C7FA224631462846BDE870402A
:10174000FFF7C4BFE40D0020D8020020A6C900089E
:101750002DE9F041284B1B68002B32D1274E3378FE
:101760007BBB274B1D6865BB264C274F04220021FD
:101770002046FFF7ABFF20B30222002104F1100046
:10178000FFF7A4FFE8B157F8043F05F10108002B6B
:1017900004D14546032D1BD01834E7E7CCBF012107
:1017A00000211A4B01225B5D4546CB1A5942594133
:1017B00004F10800FFF7A8FF032D07D01834002814
:1017C000D4D11348BDE8F041FFF73CBF0028F8D062
:1017D00001214CF25030FFF777FE18B1BDE8F0411F
:1017E000FFF768BF0B4883681B6898470028F5D14E
:1017F00001233370BDE8F081E40D0020651800205E
:10180000E80D002078C600083C070020AC07002047
:10181000A6C900084CC40008F8B51D4E1D4DEFF3D5
:101820001184102383F31288BFF36F8FFFF78CFEB0
:101830000022194B10461F469978E9B91979D9B990
:10184000597901320143032A01F0010003F18003B9
:10185000F2D1304608F07BF82B7823B197F8DA34D0
:1018600063B9FFF7A3FE84F31188BFF36F8F0021E4
:10187000142007F0F7F8D2E70121E2E708F07BF83F
:101880000146054800F0B2FF0028EAD0EBE700BFB0
:1018900040C6000865180020D80200202DE9F84F46
:1018A000EFF31186102383F31288BFF36F8F7F4B02
:1018B0001D6845B17E48FFF7C5FE86F31188BFF36A
:1018C0006F8FBDE8F88F7B4FFFF73EFE3C68002C22
:1018D0006ED0FFF7CDFDDFF8E081D7F8009029FA50
:1018E00005F3DB071AD40135032D08F11808F6D1EA
:1018F0000025724C3D6094F866388BB394F86738D5
:1019000073B3D4F83424D4F838349A4228D120461A
:1019100001F0AEF850B9FFF749FECEE704220021EE
:101920004046FFF7F1FE0028DDD1C6E708F023F8B6
:101930000146204600F05AFF0028ECD0604F04F228
:10194000644858F8043F002B20D10135032D07F1DE
:101950001807F6D15B4B1A68632A9CBF64221A6091
:1019600094F8DA34002BD6D008F005F80146534835
:1019700000F03CFF0028CED00021524B1868FFF742
:10198000A3FD002899D0FFF795FE96E7CCBF012173
:1019900000214D4B01225B5D3846A1EB030CDCF1CD
:1019A000000141EB0C01FFF7AFFE0028CDD184E729
:1019B00007F0E1FF0146414800F018FFDFF8FC8026
:1019C0000028A8D03C4DA246A94608F2644B02224A
:1019D000002109F11000FFF779FE00283FF46DAFF8
:1019E000042200214846FFF771FE00283FF465AF4E
:1019F0005BF8043F002B47D10AF1010ABAF1030F4B
:101A000009F11809E3D107F0B6FF01462B4801F0B0
:101A100067FF2C4B4FEA5009A0EB50001860274895
:101A200001F062FE98F8DA348246002B3FF473AF7F
:101A30002AFA04F3DB071CD54FF0010B3A680BFAC6
:101A400004F313433B6005F07DFADFF88080032246
:101A5000C8F8000059462846FFF756FE00283FF414
:101A60002CAF05F06FFA2146C8F80000134808F0C3
:101A70009DF80134032C05F11805D9D10F4801F068
:101A800009FF002148467AE7CCBF012100210E4B17
:101A9000012213F80A30C81A4142414109F10800F5
:101AA000FFF714FE0028A7D107E700BFE40D0020D0
:101AB000A6C90008E80D002078C60008D80200205A
:101AC00080C60008F00D0020AC070020F40D0020B7
:101AD0002DE9F04F8548ADF63C0D00F0ADFA844895
:101AE0000AF0FFF8002800F02D8282480AF0F9F889
:101AF000002800F0278280480AF0F3F8002800F060
:101B00002182DFF8F88100274446DFF8F491DFF8FE
:101B1000F4A120680AF0E5F8002800F01382A0681C
:101B200004F108060AF0DDF8002800F00B822069B5
:101B300004F110050AF0D5F8002800F003824FF4F4
:101B4000B011204607F0D3FE002840F0FB814FF48F
:101B5000B011304607F0CBFE002840F0F381284654
:101B60004FF4D01107F0C3FE0546002840F0EA818B
:101B70004E4630680AF0B5F8002800F0E38151467F
:101B8000304607F0B4FE002840F0DC810836002D16
:101B900071D00237062F04F1180409F11009B8D1E9
:101BA0004FF4B011584807F0A2FE002840F0CA8157
:101BB0005048D0E90123DB6A002B5ED09847534B95
:101BC0001860534B984204D00522524B1A60FFF71D
:101BD00071FD51480AF048F9504803F043F80446B3
:101BE000002840F0AF810146C8220AA80AF014FB81
:101BF0002346DFF804914A4FEFF31181102282F35C
:101C00001288BFF36F8F474A12680492464A1278CF
:101C100081F31188BFF36F8F04998B422FD172B378
:101C20004FF4807AD9F808300593059B1B68002B88
:101C300000F0D48048460DF127019847002840F075
:101C4000CD809DF827100AA808F026F8012840F05A
:101C50004D81EFF3118B102383F31288BFF36F8F45
:101C6000314B1B78D3B93148FFF7ECFC8BF311886B
:101C7000BFF36F8FAEE001257BE750689FE70AA8AE
:101C800008F004F8D9F808502B68002BC8D0484653
:101C90000DF1270198470028F6D0C1E7FFF754FC63
:101CA0003B78124E23B196F8DA340BB9FFF77EFC7D
:101CB00007F061FE0AA902460C48FEF7EDFB032877
:101CC000054640F0FB80134AD6F8D03411683A78C4
:101CD00082B30021054801F0A5FEFFF767FC144B15
:101CE000024A0225C2F8383552E000BFD80200206F
:101CF000E8C300084CC4000824C4000878C60008E3
:101D000048C600081000010040C60008FC0D002075
:101D100040420F00E40D0020680200205D1600081C
:101D200065180020F80D002064180020B7C90008CD
:101D3000CCC90008864A12681143CAD118225343FD
:101D4000042208EB03000693FFF7C0FC069B002863
:101D5000BFD010334344184696F8DE14079307F0BB
:101D6000F6FD0690022009F0ADFFDDE90623002A0A
:101D7000AFD196F8DE14022281F001011846FFF778
:101D8000A5FC06460146734801F04CFE002EA4D087
:101D90003CAE31460AA802F0CFF8023D18BF01253B
:101DA0006C4AC021D2F83835CDE900650293D2F8EB
:101DB00024348EA8D2F8202402F06AF88BF311881C
:101DC000BFF36F8F64493046FEF74CFB10B18EA80D
:101DD000FFF766FBBAF1010A7FF427AFEFF3118634
:101DE000102383F31288BFF36F8FFFF7ADFB3B78AF
:101DF000002B40F08B80564B1B685BB907F0BBFD96
:101E0000544D0146284600F061FF012840F08E80C5
:101E1000FFF79EFC86F31188BFF36F8F07F0ABFDD1
:101E2000031B632B054643D9EFF31184102383F37F
:101E30001288BFF36F8F494B3E78D3F800A007F0AC
:101E40009AFD53463246009042493CA801F0FCFD01
:101E5000C24600269AF80C10DAF8080007F066FD72
:101E6000421E53425341809AB34001361343032E1E
:101E700080930AF1180AEDD1394B1B688B93394BCB
:101E80001B688C9384F31188BFF36F8F07F073FD89
:101E90004FF4C06103463CAA8EA801F011FF40F246
:101EA000FE530138984202D88EA8FFF7F9FA2C4663
:101EB0001420002106F0D6FD049B9DE6012809D1DF
:101EC000FFF746FC96F8DD34002B3FF461AFD6F8FF
:101ED000343505E796F8DA34002B7FF459AF3B78B8
:101EE000002B3FF455AFFFF761FB51E702287FF469
:101EF00071AFEFF31185102383F31288BFF36F8F57
:101F00001948FFF79FFB85F31188B1E6114D95F84D
:101F1000DA3413B9FFF74AFB6DE707F02CFD0146F1
:101F2000284600F063FC0028F4D064E795F8DA3422
:101F3000002B7FF46FAF3B78002B3FF46BAFFFF7C4
:101F400035FB67E700200DF63C0DBDE8F08F00BFC4
:101F5000E80D0020D8020020D8C90008EC0D0020B0
:101F6000E40D0020E00D0020DDC9000870B500265A
:101F7000044600F5926518223146C0F86864C0F83E
:101F80006C64C0F8706428460AF046F9182231469D
:101F900004F58A600AF040F9D4F8C834D4F8A021D6
:101FA000ABB95242C4F8682400234FF48012C5E94B
:101FB000002345E90223D4F8A001D4F8DC3100382D
:101FC00018BF0120C4F8FC3484F8DA0470BD03F5AE
:101FD0008D7144F821204FF48010002103F192020A
:101FE00004EBC202012BC2E9000145E90201E2D182
:101FF000D4F88034D4F88424012B72F10001ACBFF2
:1020000001210021D4F86C04A1EBD2714143002AD4
:10201000C4F8701402DA5B4262EB42020549C4F86C
:10202000A0348B4272F10001C4F8A424A8BF45E992
:102030000232C0E70100100038B540F66802002106
:1020400004460AF0E9F84FF0FF330125C4F80835DB
:10205000204607F09AFE84F8D75484F8D45404F14B
:10206000800007F092FE84F8D85484F8D55404F523
:10207000807007F08AFE002384F8D95484F8D6349F
:1020800004F5C07007F081FE4FF4C81243F25553B7
:102090004FF42041C4E9F0231023C4E9F2130823CC
:1020A0001D4AC4E9F4331D4B1D48C4E9F723C4F8A5
:1020B000E4334AF6C873C4E9FB30802384F8A8549B
:1020C000C4F8AC3440F6B835C823C4E9FE53C4F8AC
:1020D000043449F64043C4F8D8234FF49652C4F868
:1020E0001034104BC4F80824C4F814344FF40073AF
:1020F0004FF4C872C4F818344FF48063C4F80C2449
:102100004FF44872C4F81C34074BC4F80024C4F8D8
:102110003835C4F8343538BD70A0FEFF905F01003B
:1021200055581400E0930400F8C90008F8B50446B7
:10213000164600EBC112D0681D4694F82875CB01F5
:1021400008B11269E2B9021E18BF0122234493F8B4
:1021500002C0944514D11A6993F804C0131E18BF25
:1021600001239C450CD10EB1024309D137B1D4F8FB
:102170002C358B4202D1002384F82835012014E04D
:102180001FB1D4F82C358B4206D00123C4F8245556
:10219000C4F82C1584F828350F4BC4F83435D4F81E
:1021A0002435EB1AC72B01D80020F8BDC4F8081558
:1021B000204607F0E8FB07230849C4F81035084B10
:1021C000C4F80C05002E18BF19462046C4F8145553
:1021D00007F088FCE8E700BF29CA00080ECA00081B
:1021E00005CA00082DE9F74F022904460D4691461D
:1021F0001F460C9E00F2688100EBC11898F805306C
:10220000D8F80CB04FEAC11A0193BBF1000F06D009
:10221000D8F81030B3F1000B18BF4FF0010B04EBEE
:102220000A035B693A46009349463346404607F045
:10223000F1FD019B002B69D198F80530002B6BD183
:10224000009B002B64D004EB0A035B69002B40F079
:102250008C8094F8DC34002B00F09A80B9F1010FE7
:1022600000F0A38094F8DB34002B00F02D8194F86B
:102270003035022B04D1D4F8C834012B00F03E8154
:1022800094F831350A2B40F0FA80022D40F0F780A7
:10229000B9F1010F02D0012F40F0F18094F8DF3442
:1022A00053BB94F8DA244FF00108C4F8EC34C4F8B6
:1022B000F03484F8293584F8DA34022384F8E024F1
:1022C000D4F8A021C4F80835C4F8E42494F8F8211F
:1022D000204684F8E824C4F8F864C4F8F46484F868
:1022E000DF8407F050FB874BC4F80C05C4F8108559
:1022F000C4F81465C4F83435D4F8EC3443F004035E
:10230000C4F8EC34012384F82935B8E0009B3BBBCA
:1023100004EB0A035B691BB304EB0A035A6920460A
:10232000002A14BF04230223C4F808550093019225
:1023300007F029FB009BC4F80C05C4F810352046B3
:10234000C4F8146507F0C4FB50B994F8DC343BB909
:102350006D4B6E49019A002A18BF0B46C4F83435FC
:1023600098F80530002B3FF46EAF204607F0B0FB25
:1023700010B994F8DC345BB1A244DAF81410624A64
:10238000624B204600290CBF1146194607F0AAFBF4
:1023900094F8DB34002B00F09780B9F1010F7FF443
:1023A00066AF012F7FF463AF15E0012F7FF45AAFC2
:1023B0002046C4F8085507F0E6FA5549C4F80C055C
:1023C000C4F810752046C4F8146507F08BFB94F828
:1023D000DB34002B78D098F8058094F830A5B8F15C
:1023E000000F7FF444AF2946204607F0E3FA0028A7
:1023F0006DD0BAF1020F08D1D4F8C834012B04D142
:10240000A91ED1F1000848EB010894F8DF344BBB5A
:102410004FF0010A94F8DA24C4F8EC3484F8E0248C
:10242000D4F8A021C4F8F034C4F8E42494F8F821D6
:1024300084F8293584F8DA34204684F8E824C4F88E
:10244000F864C4F8F46484F8DFA4C4F8085507F00D
:102450009AFA2C4BC4F80C05C4F810A5C4F81465FE
:10246000C4F834350122D4F8EC34AA401343C4F83C
:10247000EC3494F8293548EA030884F8298594F85F
:102480003035022B20D1D4F8C834AB421CD1D4F85B
:10249000A05133463A46494604F5C07007F0BAFCED
:1024A00095B1D4F8A0317BB994F8DF3463B994F8CE
:1024B000F831022B01D00B2B06D1204607F063FA2E
:1024C000C4F81C65C4F8180503B0BDE8F08FBBF173
:1024D000000FD4D1D4F8203520465A1C1CBF01333C
:1024E000C4F82035C4F8085507F04DFA0623C4F89F
:1024F0000C05C4F81035C4F81465C0E7022DC2D12C
:10250000C6E600BF59CA000842CA000838CA000817
:102510004FCA00082DE9F04190F8DD3404460E461C
:10252000002B61D10546074600F1030897F8D73420
:10253000391B002B5AD06B69B3B1D4F808358B42E4
:1025400003D1D4F81035042B0BD02046C4F808155D
:1025500007F019FA0423C4F80C05C4F81035C4F8C0
:1025600014652548BDE8F0816B79ABB1D4F8083526
:102570008B4203D1D4F81035022B0BD02046C4F87F
:10258000081507F000FA0223C4F80C05C4F810354A
:10259000C4F814651948E5E7EB68B3B12B69A3B13A
:1025A00094F8DF348BB9204607F004FA68B120466E
:1025B000C4F8081507F0E7F90123C4F80C05C4F8BE
:1025C00010350F48C4F81465CCE7284607F0E4FB43
:1025D00070B16B6AF31A1E2B0CD80137474505F111
:1025E0008005A3D10020BDE70648BBE70648B9E750
:1025F0000648B7E70648B5E738CA000842CA0008E7
:102600004FCA0008CCC9000869CA00087FCA000880
:1026100072CA0008F8B590F8A934044643BBD0F854
:10262000B8230AB9D0F8C423D4F8BC330BB9D4F812
:10263000C833D4F8F063F017A6FB036103FB001165
:10264000104B0905A2FB032351EA16314FEA520051
:102650004FEA065540EAC3704FEA630709D42818C9
:1026600041EB0701FDF744FDC4F88004C4F884146D
:10267000F8BD401B67EB0101FDF73AFD404261EBFD
:102680004101F1E740420F002DE9F8430546884635
:10269000D0F8740309681646CA17091A62EBE0728B
:1026A000002A4FF00003C0F29880D5F8A8038842B2
:1026B00073EB0202C0F293804FF47A20D5F87813BE
:1026C000D8F80440E217641A62EBE172A4FB0041FF
:1026D00000FB0211D5F8B82399424FEA52005DDBA6
:1026E000201841F10001FDF703FD04460F464FF4A9
:1026F0007A20D5F87C13D8F80830DA175B1A62EB29
:10270000E172A3FB003100FB0211D5F8BC230029C4
:102710004FEA52004BDB181841F100010023FDF78E
:10272000E7FC80468946D5F8F0332E4803FB07F1D5
:10273000DA1704FB0211A3FB0432891842D41818DB
:10274000294A4FF0000341F10001FDF7D1FCD5F813
:10275000D8333344DA179C4277EB02023DDBD5F8DD
:10276000E0339B1BDA17A342BA4136DBD5F8DC33E2
:10277000B8EB0008334469EB0109DA17984579EBA7
:1027800002022ADBD5F8E4339B1BDA17434572EBD0
:102790000902ACBF01200020BDE8F883001B61EBFB
:1027A0004101FDF7A5FC444261EB41079FE7C01AD8
:1027B00061EB41010023FDF79BFCD0F1000861EBC8
:1027C0004109B0E7C01A61EB41010023064AFDF759
:1027D0008FFC404261EB4101B9E70020DCE718467D
:1027E000DAE700BF20A1070040420F002DE9F041C9
:1027F00090F8DA6404460D46002E3DD0FFF78AFEBD
:102800000146B0BBD4F82C34EB1AB3F5AF7F2FD20E
:10281000D4F8303494F8DB04EA1A3B493B4B0028E7
:1028200018BF0B469A422BD2D4F86833384A03F5C6
:10283000741303F6FF03934224D8D4F86C3303F5E2
:10284000741303F6FF0393421CD8D4F8703303F5D6
:10285000741303F6FF03934214D894F83075022FD3
:102860001AD1D4F8A0317BB9002384F8DA3403E01C
:102870002849204607F036F900263046BDE8F081A9
:102880002549F6E72549F4E7294604F5C07007F025
:1028900045FB0028F1D1E7E794F831350A2B0DD13B
:1028A00001212046D4F86C2407F0A9F830B10023A8
:1028B00084F8DA34012384F8AA34DDE7002504F52E
:1028C0008E6858F8042F2946204607F098F80246EB
:1028D00040B12DB11249134B012D08BF1946C8E76D
:1028E0001149C6E70135032DEBD1012FC5D194F86D
:1028F000DC3433B1204604F55A71FFF7C5FE0028D9
:10290000BBD10A49B5E700BF40771B00C0270900CB
:10291000FE117A0090CA00089FCA0008ABCA0008DE
:10292000BBCA0008CCCA0008C4CA0008D5CA00083F
:102930002DE9F74F0027044699460B1FC0F838745D
:10294000C0F83474C0F83C24C0F80075019300F559
:10295000597500F5896E00F58C6A019BDFF808B1A6
:1029600053F8046F019355F8043FF017B6EB030CCE
:1029700060EBE37006F5741303F510635B4503D950
:10298000022003B0BDE8F08F00286346834603DAD7
:10299000DCF1000360EB400BDFF8D080984577EB6B
:1029A0000B0BEDDBBCF1010FAE6170F10006ACBFAB
:1029B000012600264FF0000B4FF0000CA6EBD07064
:1029C000C5F80001C5F8DC30EEE902BCD4F83804E3
:1029D000834288BFC4F83834D645BED140F24E2376
:1029E0005A43D4F838049042CAD8D4F86834D4F89A
:1029F0007053C4F87434D4F86C34D4F88064C4F8D8
:102A000078348B684968DA175B1B62EBE572D4F89F
:102A10006C53CF17491B67EBE577D4F88454120544
:102A20004D4307FB0655A6FB016142EA13321B0525
:102A30009B1B0D4462EB0502012B72F10003ACBF3E
:102A400001230023B9F1000FA3EBD273C4F87C3447
:102A50000CBF01230323003818BF012084F8303550
:102A600084F8DA048DE700BF00127A0040420F00BC
:102A70002DE9F84F90F866780446DFB190F8673892
:102A800053B1D0F83424D0F838349A4212D3B0F885
:102A90005C380133A0F85C38B4F85C28B4F85838D6
:102AA0009A420BD1002384F8DA34A4F86638274B15
:102AB000C4F8343500273846BDE8F88FB4F86068AC
:102AC0005EB9D4F84C3822495A1C1CBF0133C4F8F3
:102AD0004C38204607F006F8ECE71821B4F85E58A9
:102AE0000023694304EB0108B8F84C9501F23C510E
:102AF0004A4621442046FFF71BFFD8F848B58246D6
:102B0000C4F848B8B8F84E155A46A4F86218B8F890
:102B100050854846A4F8648807F039F85A46C4F846
:102B200050084146484607F032F80123013505F0C8
:102B30001F05013E9A45C4F85408A4F85E58A4F84D
:102B4000606884F86738B6D00249C2E7E0CA000876
:102B5000E9CA0008F6CA00082DE9FF41164600221E
:102B600004460D461F46FFF7E1FA48B994F8DB64C6
:102B700086F001067600F6B2304604B0BDE8F0817A
:102B8000012D07D13B462A4602212046FFF7CEFA07
:102B90000028EBD002234FF0000884F8316504F5DB
:102BA000C076802284F83035304684F82885C4F811
:102BB000C85404EBC51109F021FB00220023C4F81E
:102BC000A081C4E97C23C4E97A2395BB4FF47A72CF
:102BD00094F8D434D4F814C483F0010384F8803119
:102BE000D4F80C34D4F81CE4C4F83832D4F80834DF
:102BF000C4F84C7204F50070039704EB8501D1F81A
:102C0000CC13CDF800C0CDE901E1314601F03EFA28
:102C1000782202FB0545D4F82C340228C4F8E031B0
:102C20000646C5F84C3233D12046264906F05AFFF5
:102C3000A2E778206843631993F8D434022D84F80E
:102C4000803104EB0003C3F84C7211D1D4F8043482
:102C5000D4F8E423C4F82833D4F8DC3304F53C700A
:102C6000D21AD4F80034D4F810C4D4F818E4C3E766
:102C70003222C3F8382204EB8503D3F8DC23D3F8DF
:102C8000D43300F50070D21A2044D4F8FC33EAE7BC
:102C9000D4F8A03163B994F8F831022B01D00B2B92
:102CA00006D1204606F06FFEC4F81C75C4F818055E
:102CB0002046054BC4F8343504B0BDE8F041FFF7B9
:102CC00055B900BF03CB00080DCB00082DE9F04F2C
:102CD00090F8663804460D4687B08BB190F8673897
:102CE00073B9FFF717FC014608BBD4F82C34EB1A74
:102CF000B3F5AF7F20D20025284607B0BDE8F08F9E
:102D000094F8DB34002BF6D029462046FFF702FC6E
:102D1000014660B9D4F82C34EB1AB3F5AF7F0BD26F
:102D2000D4F83034A24AEB1A934207D3A149204683
:102D300006F0D8FE0225DFE79F49F8E794F8DF3474
:102D40006BBB94F83035022B40F07E827826D4F8A5
:102D5000C8042A4606FB004004F5C07100F5007067
:102D600001F0F2F9D4F8C83406FB03F2A11891F887
:102D700000720B2F40F0BA8091F80222062A0CD183
:102D8000C4F808350523C4F81035D4F81835C4F84C
:102D90000C35D4F81C35C4F814358849C7E7D4F885
:102DA000EC3413F0010618BF03269A0748BF46F01B
:102DB0000C065807204648BF46F0300606F0E3FDF3
:102DC000D4F8F03430409842C0F381031CBFC4F8FB
:102DD000F004C4F8F854032BD4F8F4344FEA10127A
:102DE000A5EB030306D1C72B85D903237449C4F887
:102DF00010359CE7032AF6D0C72BF6D800F0030065
:102E000003283FF478AFD4F8F834EB1A132B7FF68D
:102E100072AF94F82935A3B1D4F80C3113B9D4F8B2
:102E2000103173B102232046C4F8083506F0ABFD1B
:102E300007236449C4F80C05C4F81035C4F81455C8
:102E400075E7002384F8DF34D4F80435C4F8FC5463
:102E5000591C1CBF0133C4F804355B4BC4F834352E
:102E6000D4F83434C4F8003594F8E03484F8DA3413
:102E700094F83035022B06D094F8DA34002B3FF466
:102E800060AF012538E7782094F8E824D4F8E414FA
:102E900084F8F821D4F8C824C4F8A01100FB024239
:102EA0000020814282F8700216D0CCBF0121014679
:102EB00094F88021914213D1D4F88C21002ADBD0E0
:102EC00000222046C4F8A02184F8F83106F05BFD0A
:102ED000C4F81C55C4F81805002384F8DA3430E728
:102EE000D4F89031002BC7D00B23E9E7012805D196
:102EF000204607B0BDE8F04FFFF738B804282BD1C3
:102F0000D4F8A02193B95242C4F86824012384F86C
:102F1000DA342D4BC4F8FC54C4F83435D4F80435F5
:102F20005A1CAED00133C4F80435AAE703F58D71FD
:102F3000012B44F82120E9D1D4F88034D4F884144A
:102F4000012B71F10003ACBF01230023A3EBD1736C
:102F50005343C4F87034D9E702F50070204407F0F9
:102F60003DF8834600287FF4C6AED4F8C89406FB2B
:102F70000946D6F804A204EB8907C7F8A8A3B9F15B
:102F8000000F76D1D4F8F42312B34FF47A27AAFBBA
:102F900007B74B46394658460192FDF7F9F8019AB2
:102FA0000646934577F10007884616D20749BEE6E4
:102FB00040771B009FCA000890CA00082ACB00086F
:102FC0001ACB000805CA00080DCB00083DCB00084D
:102FD000D4F8C063C846002EE8D0BF4BB3424FF0D0
:102FE000000373EB0803E1D394F83135C4F8B463FC
:102FF000062B03D194F8A934002B79D1D4F8683387
:10300000A3EB0A03C4F8743394F83135062B52D07D
:103010002046FFF7FFFAD4F88424D4F88034002A3D
:1030200002DA5B4262EB4202AC498B4272F100026F
:1030300080F20881D4F86803D4F86C1303AB03C39F
:10304000D4F8700304F55A76186094F83135013BD2
:103050000B2B00F24183DFE813F0FD000101320188
:1030600036028F0292020B033F033F038001AF0140
:1030700035014FF47A20D7F8D433D7F8DC23AAFBF4
:103080000001D21A5B46FDF783F8954A431E884635
:1030900061F100019A427BEB0101064686D3B9F14A
:1030A000010FC7F8B4031FD094F83135062BAFD108
:1030B00094F8A934E3B9D4F8E833D4F8F013D4F889
:1030C000DC6383FB0131002986484FEAE67880F211
:1030D0008A80C01A61EB41010023834AFDF708F89A
:1030E000404261EB410186E094F8A934002B53D0B3
:1030F000D4F8C034D4F8B803DA17012B72F1000108
:10310000ACBF01270027A7EBD277D4F8C424002B4B
:1031100087FB0272A7FB007100FB02127249B8BF65
:103120005B42A7FB01C701FB0277D4F8BC13D81799
:10313000A3FB012301FB0033002F4FEA520040EABA
:10314000C3704FEA630113DB1CEB000047EB010186
:10315000FCF7CEFF0029034602DA434261EB41014E
:10316000624A9A424FF000038B410BDA6049DEE578
:10317000B0EB0C0061EB0701FCF7BAFF404261EBDA
:103180004101E7E7C4F8F003B9F1000F3FF436AFAF
:10319000B9F1010F7FF438AFD4F8D803D4F86C73C9
:1031A00000FB08F1C31706FB0311A0FB06068919F3
:1031B0000DD410F5FA204FF47A224FF0000341F1BC
:1031C0000001FCF795FF3F1AC4F878731CE7D0F5AF
:1031D000FA204FF47A224FF0000361EB4101FCF733
:1031E00087FF4042EFE718183F4A4FF0000341F1D4
:1031F0000001FCF77DFFD4F8BC33301848EB010820
:10320000A3FB000103FB08110029D4F870730DDB48
:1032100010F5FA204FF47A224FF0000341F100013B
:10322000FCF766FF3F1AC4F87C73F1E6D0F5FA208C
:103230004FF47A224FF0000361EB4101FCF758FF95
:103240004042EFE72B4972E594F8DA34002B3FF463
:10325000F1AE50E52B460222022136E0D4F8B0331D
:10326000D4F87023C4F8B03403EBD373C4F8B82493
:1032700002EB6302C4F8BC24059A204602EB630209
:10328000059203A92A4606F05BFC30B994F8DB04EA
:1032900080F001004000C5B22EE5032384F83135EB
:1032A000C8220123204603A9FFF742FB0228054656
:1032B0007FF422AD2046104906F014FC1CE594F87A
:1032C000A834DBB92B4604220121204607B0BDE813
:1032D000F04FFFF741BC00BF00E1F505010000041D
:1032E0003F420F0020A1070040420F0080841E00D3
:1032F0004ACB00085CCB0008F9CB00082B46002223
:1033000001212046FEF712FF00283FF4F4AC2B46C3
:10331000012202212046FEF709FF00283FF4EBAC12
:10332000D4F86C330122C4F8B4340023114620468B
:10333000C4F8C434C4F8C034A4F8AA3406F05FFB5F
:10334000D4F8AC2400B15242049B134404930A23E2
:1033500084F8313501233222A4E794F8AA34E3B18A
:1033600094F8AB340BB1C749E1E44FF48073D4F85F
:10337000AC24D4F86C14A4F8AA34D4F8B43420469D
:1033800001FB12332A4603A9049306F0D9FB01235B
:103390000028E0D1A4F8AA34ADE4D4F86C33D4F812
:1033A000B4249B1AC4F8C0340F331E2B01D8B6497D
:1033B000BDE42B460B224FE76421D4F8B033D4F898
:1033C000B024D21AB3FBF1F3002AB8BF524204333F
:1033D0009A4201DDAD49AAE4D4F8C024D4F8B83447
:1033E000D4F87063012AA6EB03064FEAE27373F187
:1033F0000001ACBF01270027A7EBD37787FB06713D
:10340000002AB8BF52420905D317500851EA1731B4
:10341000C4F8C4644FEA075C40EAC3701CD41CEBD8
:10342000000043EB0101FCF763FE002903460A4656
:1034300002DA434261EB4102954FBB4272F1000256
:1034400004F5906302DA07360E2E0FD80021002013
:10345000C3E900018F496AE4B0EB0C0063EB0101A2
:10346000FCF746FE404261EB4101DEE7C4F8800410
:103470005960D4F8F023D317012A73F10002ACBFCE
:10348000012200220128A2EBD37271F10003ACBF2C
:1034900001230023A3EBD1739A4201D07E4946E475
:1034A0000126D4F8B4342A460493D4F8BC34204618
:1034B00084F8A96403A9059306F042FB00283FF4B1
:1034C0001AAC0C23EAE6D4F8E803D4F8B833C217F0
:1034D000A0FB030103FB02110029D4F8786336DB5B
:1034E00010F5FA204FF47A224FF0000341F1000169
:1034F000FCF7FEFDD4F86C333044D4F88424C117B3
:103500000490C01A00FB02F261EBE371D4F880343E
:1035100001FB0322A3FB0030121824D413F500236F
:1035200042F100021B0D43EA0233059A20461A4479
:10353000059203A92A4606F003FB00283FF4A6AE35
:1035400005234FF4C87284F831350123AAE6D0F57B
:10355000FA204FF47A224FF0000361EB4101FCF7AF
:10356000C7FD4042C6E7D3F5002362EB42021B0DC4
:1035700043EA02335B42D8E72B4606226CE6D4F8D6
:10358000E833D4F8F013D4F8EC6383FB013100295D
:1035900042484FEAE67840DB1818414A4FF00003F2
:1035A00041F10001FCF7A4FDD4F8BC33301848EB1E
:1035B0000108A3FB000103FB08110029D4F87C7368
:1035C00036DB10F5FA204FF47A224FF0000341F178
:1035D0000001FCF78DFDD4F8B433D4F8F863074448
:1035E0000597A6FB036716F5FA204FF0000347F195
:1035F00000014FF47A22FCF77BFD2A4BB3424FF0D7
:103600000003BB4106DAD4F8A8335A08904271F19E
:10361000000119DB2449FFF78ABBC01A61EB4101A5
:1036200000231F4AFCF764FD404261EB4101BBE708
:10363000D0F5FA204FF47A224FF0000361EB4101FC
:10364000FCF756FD4042C6E7D4F8742303A913449F
:10365000181A03902A46204606F072FA00283FF412
:1036600015AE07234FF4487284F83135012319E66B
:103670004FF47A7231462046FFF706F8C0B90B497D
:10368000FFF755BB6CCB000881CB000896CB000838
:1036900001000004A6CB0008BBCB000820A1070056
:1036A00040420F00FF2FF200C9CB0008D5CB000825
:1036B000002384F8DB34012384F8DC34D4F840346C
:1036C0000133C4F840344FF40063A4F83035044BA0
:1036D000C4F83435FFF70FBB0249FFF728BB00BF22
:1036E000E1CB0008EDCB00082DE9F04F90F83065F4
:1036F0000446022E13BF4FF0000CD0F88854D0F8C7
:103700008CC4D0F8385485B055EA0C033AD0002266
:103710004FF001089146D0F86803D4F86C1301AB60
:1037200003C3D4F870030DF1040E186004F244478B
:1037300004F58A63022E14BF4FF0000AD3E9101A71
:10374000186818BF3968091858684AEB0000A94280
:1037500070EB0C0A1CD2C3E900100132032A03F1FA
:1037600008030EF1040E07F10407E3D1012E1FD167
:103770000022204601A9FEF787FFD8B94349204619
:1037800006F0B0F94FF00009484605B0BDE8F08FEB
:10379000491B60EB0C00C3E9001008FA02F1786ADB
:1037A00049EA0109DEF800100144CEF80010D4E720
:1037B000022EE9D0D4F86C33029F039EFD17FF1A46
:1037C00065EBE37594F83135D4F870B30A2BD4F86F
:1037D0008084D4F884A413D1012F75F10003ACBF09
:1037E0000122002201212046A2EBD57206F007F942
:1037F00030B1002384F8DA34012384F8AA34C1E715
:10380000D4F86813019B2046DA175B1A62EBE17269
:10381000012B72F10003ACBF012300230021A3EBB5
:10382000D27206F0ECF870BB012F75F10003ACBF4B
:103830000122002201212046A2EBD57206F0DFF81A
:1038400008BB08FB05F5F21707FB0A55B6EB0B069C
:10385000A8FB078762EBEB72120542EA16323605C7
:10386000B6EB08063D4462EB0502012E72F100033F
:10387000ACBF0123002302212046A3EBD27206F045
:10388000BEF8002880D0024979E700BFD5CA0008F9
:1038900005CC000890F83035022B05D1D0F8A031C6
:1038A000CBB980F8DA347047D0F83434D0F8382403
:1038B00001339342C0F834340DD390F8663853B9CD
:1038C00090F8DB14044A80F8DA34044B002918BF5E
:1038D0001346C0F8343570470DCB0008E0CA000825
:1038E000F8B590F830350546022B3BD1D0F8FC34C2
:1038F000D0F8DC21D0F8C8048A1AC91A8A4228BF35
:103900000A467823322A38BF322203FB0053D5F807
:10391000D811D3F83832323A8B4228BF0B46B2F571
:10392000FA6F28BF4FF4FA62C91A4A434FF4FA619A
:10393000B2FBF1F21A44D5F88834D5F88C44A3FBD5
:10394000023102FB04121B0D43EA0233322B38BF53
:103950003223002858D0B3F5C86F28BF4FF4C8638E
:103960002F485AE0D0F83424D0F8387490F86638EC
:10397000D0F83C44BF1A53B390F867383BB3D0F843
:1039800050382146B0F8620806F053F83A46064629
:103990002146D5F85438B5F8640806F04AF8B04224
:1039A00028BF30464FF08042904205D300232AB909
:1039B000322B38BF3223CEE79208F5E799188142BF
:1039C0004FEA53039CBF9B18401A9208EFE7D5F8C3
:1039D0000035D21ABA4228BF3A46D5F84834C82A28
:1039E00028BFC82273B9D5F84C345BB9D5F80C148C
:1039F000A14228BF2146631A5343C822B3FBF2F306
:103A00000B44D5E73221F3E7B3F5C85F28BF4FF485
:103A1000C85303F5742000F23F20B0FBF3F0F8BD6B
:103A200040420F0039B1D0F8D02490F8DE3402447F
:103A300082F8D73470470122024980F8DD2406F06D
:103A400051B800BFCCC900082DE9F74F0C46054618
:103A50001F46164600214FF4A47208F0DDFBD4F88F
:103A600020342046C5F89830D4F82434C5F89C306A
:103A7000D4F84034C5F8A030D4F83434C5F8A430B4
:103A8000D4F83834C5E92A37B4F85838C5F8B03016
:103A9000B4F85A38C5F8B430B4F85C38C5F8B83062
:103AA000B4F86038C3F12003C5F8BC30D4F84C3802
:103AB000C5F8C03006F00CF8002818BF064685F897
:103AC000316194F8DC3485F8323194F8DD3485F8CE
:103AD000333194F8313585F83431D4F83435C5F8BC
:103AE0003831D4F80435C5F8C43094F8DF3485F89B
:103AF000FC30D4F82035C5F8E43094F8283585F842
:103B0000FD30D4F82C35C5F80031D4F80835C5F8A7
:103B1000E830D4F81035C5F8EC30D4F80C35C5F8D9
:103B2000F030D4F81435C5F8C83094F83035C5F8FD
:103B30001431D4F8C834C5F8183194F8DA0430B127
:103B400020460C99FFF7CCFE5C4BB3FBF0F0A0468F
:103B50000027C5F81C01D4F8F03304F55979C5F8ED
:103B60002031D4F880342E1FC5F82431D4F8C03465
:103B700004F5627BC5F82831D4F8C43404F2D34A82
:103B8000C5F82C3194F8A93485F8303105F140039B
:103B9000019359F8043F0199D9F80C209B1A46F873
:103BA000043FD9F80C20D9F818309B1AF360FBE9D0
:103BB0000223E1E90223236C0191C6F8CC30D8F846
:103BC00044327900C6F8D8306369D5F8F820003B54
:103BD00018BF0123BB401A43C5F8F82023691A1EF9
:103BE000E36818BF0122003B18BF012343EA4203E8
:103BF000D5F8F4208B401A43C5F8F420D9F84030AA
:103C0000B361D9F84C307362D8F824323363D8F8F2
:103C10002832F36398F80032336698F80232F3667C
:103C200098F80132B367A378D5F88420002B41D1EE
:103C3000E368003B18BF01238B401343C5F8843071
:103C40002279CABB2269003A18BF012201318A4099
:103C50001A432046C5F8842006F09EF8D5F888302F
:103C6000B8400343C5F888309AF80420D5F88C3062
:103C7000BA401343C5F88C301AF8012FD5F89030AC
:103C8000BA401343C5F89030D9F800318034C6F8F3
:103C9000043114F87B2CD5F89430BA400137134323
:103CA000032FC5F8943008F178087FF472AF03B0A1
:103CB000BDE8F08F0123BFE70122C7E740420F00B4
:103CC00030B5D2F83841D7B05494D2F8404153942B
:103CD000D2F8AC40529492F833415194D2F83C411E
:103CE0005094D2F8C0404F94D2F8BC404E94D2F8D1
:103CF000B8404D94D2F8B4404C94D2F8B0404B94B4
:103D000092F830414A94D2F82C414994D2F8284193
:103D10004894D2F824414794D2F820414694D2F8EE
:103D200010414594D2F80C414494D2F80841439490
:103D3000D2F804414294D2F81C414194D2F818417F
:103D40004094D2F814413F94D2F8E0403E94D2F827
:103D5000DC403D94D2F8D8403C94D2F800413B94EA
:103D600092F8FD403A94D2F8E4403994D2F8D44025
:103D70003894D2F8D0403794D2F8CC403694D2F868
:103D8000C8403594D2F8F0403494D2F8EC403394E3
:103D9000D2F8E8403294D2F8C440319492F8FC4012
:103DA0003094D2F8F8402F94D2F8F4402E94D2F800
:103DB000A8402D94D2F8A4402C94D2F894402B948F
:103DC000D2F890402A94D2F88C402994D2F88840B6
:103DD0002894D2F884402794D2F880402694D46F57
:103DE0002594946F2494546F2394146F2294D46E6A
:103DF0002194946E2094546E1F94146E1E94546CEF
:103E00001D94146C1C94D46B1B94946B1A94546B77
:103E10001994146B1894D46A1794946A1694546A7B
:103E20001594146A1494D469139494691294D2E981
:103E30001645CDE91045D2E91445CDE90E45D2E944
:103E40001245CDE90C4554690B9414690A94D46861
:103E5000099494680894546807941468069492F836
:103E600034410594D2F8A040049492F8324103946E
:103E700092F83141CDE90134D2F89C300093D2F868
:103E80009830024A05F01EF857B030BD0BCE00083E
:103E90001FB5089C03949DF81C400294069CCDE934
:103EA00000341346024A05F00DF804B010BD00BFFF
:103EB000CDD100082DE9F74F1C46DDE90CA80378A9
:103EC000834616460E9F1BB9002003B0BDE8F08F55
:103ED0002D2B03D0A3F13002092AF5D82D2B0CBFCE
:103EE0005A46ABF1010212F8013FFBB908F0F8F9AC
:103EF0000546DFF840900A2240F8093001A95846EB
:103F000005F02CF855F80930002BDDD1019B1B780A
:103F1000002BD9D1B04271EB0404D5DB824578EB9C
:103F20000108D1DBC7E900010120CEE7303B092BB6
:103F3000D9D9C9E70C00000038B50C4605460B4935
:103F40002046FCF799FA22462846094904F0E6FF84
:103F5000621E12F8013F03B938BD413B192BF8D955
:103F60002046BDE838400149FCF786BA22D2000855
:103F70002AD20008F8B50D461146026A0446069E8C
:103F800062B9012D01D06A1C08D141F6CE02A1F11F
:103F90003200904202D80E4A934206D9002323628F
:103FA0000723022084F87830F8BD00272365A16537
:103FB000324629462046676505F0F5FE034608B1FE
:103FC0002762EEE70120C4E917662562EAE700BF31
:103FD00040420F002DE9F3411F460023022A044608
:103FE0000E4615460270A0F8703080F8723002D18B
:103FF000236C012133E0082AFAD0052A2CD0042AA8
:1040000025D10121C36B626B1F4830633046009796
:10401000FFF7B0FFF765E36C0228804633660FD1E7
:10402000012D96F8782006D13378002B14BF0B238E
:104030000223934204D004233146204605F0D5FFE5
:1040400008F1FF335842584102B0BDE8F081062A1A
:1040500007D1026C5300CCE74FF0FF31036CA26B29
:10406000D2E74FF41273D340DA0706D5026C53003F
:10407000072D4FF0FF31C6D0F1E7012DC36BF7D10B
:104080004FF0FF31BFE700BFC0270900F0B5846BD8
:104090001D46DDE90767DDE905C30CB932248463F9
:1040A0000478013C082C47D90C6A002C44D1234CDD
:1040B000A2F57A7EA6453FD841F6CE04A5F1320E90
:1040C000A64539D8846B312C36D9AC4234D81C4C37
:1040D000ACF5807EA6452FD8A3F12004B4F5FF5F90
:1040E0002AD89C4528D9022E1CD82EB30469013445
:1040F00022D00024C0E90B26C0E90944C0E90FC35F
:10410000C0E9127780F820404464847044704563AD
:10411000D1E91A23C0E916233B46BDE8F04001224D
:10412000FFF758BFA6F1040EBEF11C0F04D8054CD2
:1041300024FA0EF4E407D9D40220F0BD587A050021
:1041400040410F00111000102DE9F3411346027891
:104150000546013A082A0C4608D8C26C9A1AB2F5EC
:10416000AF7F07D30223032205F03FFF002002B0F8
:10417000BDE8F081CA684E694AB10A693AB126B908
:104180000C22042321462846EEE70422F9E7019396
:10419000002EFAD16279002AF2D1204605F0FCFD0A
:1041A00020B1626A019B9A1A1E2A0CD96369002BFE
:1041B000EBD16379002BE3D1204605F0EDFDC0F192
:1041C0000602D2B2DDE7AA6C91499A1A8A4218D245
:1041D000E26D90499A1A8A4213D8D4E91A02D5E9B5
:1041E0001617D5E90FCE411A4FF009004FF003081A
:1041F00062EB0702AEFB0007ECFB08078142BA4105
:1042000001D305239CE02978276A02291FD00829B9
:104210001DD005293FD001F0FD02042A0CBF01206A
:104220004FF0FF30002FA1D10028D4BF0027012775
:1042300094F800E094F87820BE4559D00B2A5FD05E
:10424000D31EDBB20A2B76D87349CB5C9AE74FF0CA
:10425000FF3247B395F87130002B87D1002AD4BFC5
:104260000022012223789A4217D1A378002B7FF4F1
:104270007DAFE368003B18BF0123002B7FF476AFCE
:10428000636DAEF1100E7345BBD810332365012367
:1042900085F871306AE70122DBE72379002B7FF490
:1042A00065AF2369E6E794F878000828A9D195F866
:1042B00071000028A5D0002AD4BF00220122207856
:1042C00082420CBFE2682269003A18BF0122002A2C
:1042D00097D105290AD0082914BF032209222146B3
:1042E000284602B0BDE8F041FFF774BE0622F6E7AB
:1042F000022A05D0D31EDBB20A2B23D9052341E7BE
:10430000626D12B901297FF47CAF95F872201AB959
:1043100001226B6585F872202278BA4218D1E268D2
:10432000002A48D1E27952BB6A6D9A1AC72A7FF6F1
:104330001DAF062304E0022A4FF005037FF422AFED
:1043400010221FE734490B2A08BF1022CB5C19E763
:10435000226972B1A26B9A1A132AE5D90139082988
:1043600000F29C80DFE801F0299A2B319A33519AB0
:104370005A00227A002AD7D0E26A217901E0A26AA3
:10438000A1780029D0D19A1A132ACDD9236D1BB157
:10439000626D93427FF635AF0023206284F8783057
:1043A00085F8703085F872306B6C5A1C01D001337F
:1043B0006B640420DBE6626BCDE702228FE7D4E971
:1043C0001C010422C5E9180189E7052287E7D4E921
:1043D0001C21D5E91807904277EB010E01DB07237A
:1043E000AEE7121A61EB0701402A71F10000FFF4F9
:1043F00008AF944576EB0101FFF403AF6A62D4E99C
:104400001C010722C5E91A0169E7082267E700BF16
:1044100040771B00BF2709002FD20008D5E91A32C8
:10442000D4E91C10994270EB0207D8DA5B1A62EBF0
:104430000002402B72F10001FFF4E3AE9C4576EBE5
:104440000202FFF4DEAE696AAB624A1C8B421A4478
:104450002CBF5B1ACB1AB2F5487F2ABFC8210421B2
:10446000B2FBF1F19942BAD3EB6A5208AB602B6B05
:104470006A60EB60D4E91C23C5E90623012385F8B3
:1044800020302B69082101332B610A232B70002374
:104490002046AB70236305F07AFC67E608234FE7FC
:1044A000014B1860704700BFB000002080B5054682
:1044B0000E461746984604F0F3FA034607F010FF3D
:1044C0000446DFF81890424649F800303946304635
:1044D000A84754F8090001F0BDFA00BF0800000029
:1044E000034A0020536823F002035360704700BF63
:1044F000002004E0044A0020136843F01003136016
:10450000024B034A1A607047002002403801002025
:1045100000127A00F0B40C4B0C4E5F6A0C4BB342A5
:1045200003D36FF08500F0BC70475D68BD4209D3CE
:104530001C693CB195F802C00579AC4502D123460F
:10454000F0BC18472433EAE7000E00206802002080
:10455000440200202DE9F04705460E461746124C4E
:10456000DFF84880DFF84890444503D36FF08500BA
:10457000BDE8F0876268D9F824309A4212D3A36963
:1045800083B190782979884205D13A463146284648
:10459000BDE8F04718475279012A03D13A4631461F
:1045A000284698472434DFE74402002068020020B0
:1045B000000E00202DE9F04105460E4617460A4C34
:1045C000DFF82880444502D36FF0850009E0636975
:1045D0000BB92434F6E73A46314628469847002876
:1045E000F7D1BDE8F08100BF44020020680200203E
:1045F00010B5044601F084FD10F1780F00D050B9D9
:10460000204605F015FE044AD2F8C43023EA000320
:104610000020C2F8C43010BD000E00200022024B62
:104620001A605A60704700BFBB0E002070B50B4B7C
:104630000B4CA34201D3002070BD0022196A1E7FDB
:104640000439D5B2AE4201D82433F2E7013211F871
:1046500032508542F5D10120EEE700BF4402002030
:104660006802002008B509480378C3F341130A33F0
:1046700050F823303BB100F1080200F110019847D7
:10468000C043C00F08BD1846FCE700BF000E002065
:1046900004282DE9F14F04460F46DFF8949016D018
:1046A00001282DD1DFF88C8098F8B93043B300F0A1
:1046B000FDFD214D4D4520D24FF0000AD5F820B028
:1046C0002B7F5FFA8AF6B34204D82435F2E7FFF76E
:1046D000A5FFE7E70BEBC606307901F011FD0246B6
:1046E000307905F0A5FDD8F8C430002A23EA00038C
:1046F000C8F8C4300AF1010AE2DA002388F8B930B8
:104700000D4D4D4508D30B4B1B6A6BB13946204606
:1047100001B0BDE8F04F1847EB681BB13A4621469F
:10472000284698472435ECE701B0BDE8F08F00BF7C
:1047300068020020000E00204402002073B5C4B2BD
:1047400063060D468DF8074007D02046FFF76EFF41
:1047500078B10D4B93F8BA0058B120460A4E55B1C6
:1047600001F07EFCF3691BB108200DF107019847A9
:10477000012002B070BD01F089FCF369002BF7D075
:1047800009200DF10701F2E7000E002073B58678CD
:104790001E4C8DF800600379427943EA0223ADF89C
:1047A0000230C378304603F003038DF8043005F07F
:1047B0003FFDD4F8C430054618420BD0304600F017
:1047C00057FD3046FFF714FF07F045FB10B9962060
:1047D00007F0EEFB684601F0F5FB10F1780F03D00F
:1047E00010B1002002B070BD9DF8000001F064FC23
:1047F00010F1780F01D00028F3D10120D4F8C43093
:1048000084F8B9002B43C4F8C430EBE7000E002055
:104810002DE9F047A34E0446B3690F461546FBB990
:10482000237803F01F03012B00F09D80022B00F082
:10483000048133BB94F900002A680028617834DAD7
:10484000062912D008292BD0D9B901235170137031
:1048500096F8C3305B0043F00103137002232AE192
:1048600098470028DCD100200DE06288100A011F63
:104870000129844605D9072803D8716AD2B20C7879
:104880001CB96FF01500BDE8F0874E78664503D17E
:104890009A4200F00B8101332144F0E70B780AE1E2
:1048A00096F8BA301370012305E101390829E8D8D8
:1048B00001A353F821F000BF5149000883480008C4
:1048C0005F49000883480008DD4800088348000865
:1048D0008348000883480008E9480008A07801F0F0
:1048E00031FB0028BFD0CCE76388756A63BBFFF754
:1048F00095FE638886F8BA30F369002BB3D00320A5
:1049000069499847AFE76B78042B10D0052B11D07D
:10491000022B04D16F796388BB4208BF01202B783A
:104920001D442B78002BEED10028AAD0DFE795F8A4
:104930000380F4E76388BB42F1D1B8F1000FEED1F8
:104940002846FFF723FFEAE7FF270020B846E8E7FD
:104950006388012B95D1002386F8C33083E76388F1
:10496000012B8ED1F8E796F8BA30D5F800C0002BAD
:1049700087D0756AA3882A4694F804E01078002846
:104980003FF47FAF5178022904D192F80480F045BA
:1049900000F293800244F1E78CF800208CF80120AB
:1049A000396060E7154494E00B2A7FF46AAF002772
:1049B0004FF0FF08BA46C14606E06B78042B0FD0D3
:1049C000052B21D02B781D442B78002BF5D1F369D2
:1049D00013B1514607209847002F7FF444AF50E7AA
:1049E00095F80280A38895F803909845EAD16388EA
:1049F0009945E7D1B8F1070F1CD806EB0803AA4682
:104A0000012783F8BB90DDE7A3884345DAD1A3787B
:104A10004B450AD0AF78384600F02AFC3846FFF7FD
:104A2000E7FDB0FA80F77F09CCE72846FFF7AEFE36
:104A30000746C7E7AA460027C4E794F90020637831
:104A4000002A18DA002B7FF41CAF24792D68630646
:104A50000AD02046FFF7EAFD00283FF412AF96F88F
:104A6000BA30002B3FF40DAF2946204605F0E8FD93
:104A700000236B70F2E6012B08D0032B7FF401AF0B
:104A80006388002B7FF4FDAE012103E061880029DB
:104A90007FF4F7AEA088FFF751FE00287FF4E3AE65
:104AA000EFE600BF000E0020BA0E002002282960A9
:104AB0007FF4F4AE4B883B60D5E694F90000627851
:104AC0000028BFF671AF002A3FF466AF0A2A7FF4D0
:104AD000D8AE2A78002A3FF4D4AE697804297FF44E
:104AE00061AFA9788B427FF45DAF072B8EBF0023A7
:104AF0009B1993F8BB308CF80030D4E613B5164CF4
:104B0000237DF3B9E26801AB8020A168019205F032
:104B10009EFB019AA3681344A360E3689B1AE360B9
:104B20006BB962B12369E2889A4208DD94F8C82023
:104B300093FBF2F102FB11330BB90123237502B091
:104B400010BD002380201A461946237502B0BDE827
:104B5000104001F0E9BA00BF000E0020002330B57C
:104B600085B002460D460193002858D1002935D161
:104B700008220B460DEB020105F06FFD002804DA58
:104B8000802001F06DFA05B030BD2A4C029AC4E9CC
:104B900003552260039ABDF80E30626004F13802BA
:104BA000A2609DF908202575002A0ADB802B04D914
:104BB000802001F055FA0020E3E713B1C4E9033384
:104BC000E1E7FFF74FFD0028DAD0E28823699A4237
:104BD000D4BFE260E360FFF791FFD4E7154C01AB6F
:104BE000D4E90215002D04DC05F037FD0028CADAEF
:104BF000C6E72A4605F031FD0028D9DB019AA368F3
:104C00001344A360E3689B1AE360002BBBD104F15B
:104C10003803A360FFF726FD0028DCD1B0E7802829
:104C2000B1D1044BDA68002AD5D11B7D002BD2D13B
:104C3000A9E700BF000E0020054B064A58629A62A1
:104C4000054A0020DA62054A1A63054A9A617047EC
:104C5000000E00201148000815450008B545000861
:104C6000554500082DE9F3410446474D4FF0FF3309
:104C70004FF0FF32454803F0B3F995F8B830002BF8
:104C80007BD16B6A83B142482C62E8616E6A01F0A5
:104C900053F901F0E9F8041E10DA3C4803F018FA61
:104CA000204602B0BDE8F08100F0BEF8FFF7C4FF77
:104CB0006B6A002BE7D14FF0FF34EEE700F018FBF2
:104CC000041EEADB7378012B5AD1F379002B57D0FD
:104CD0000026684685F8C830ADF802308DF80460CB
:104CE0008DF8006001F06EF9041ED6DB802768465F
:104CF0008DF8007001F066F9041ECEDB30462549C0
:104D000005F084FC041EC8DB3846224905F07EFC11
:104D1000041EC2DB204CDFF8848044451AD30020F7
:104D200001F0CAF9041EB8DBD5F8C430802043F086
:104D30000103C5F8C43001F0BFF9041EADDBD5F89E
:104D4000C430002443F48033C5F8C430012385F80F
:104D5000B830A2E70026276A227FF3B29A4201D830
:104D60002434DAE707EBC30257F83310107905F063
:104D70004DFC01360028EFD09DE76FF077048CE7FB
:104D80006FF0150489E700BF000E00206C010020C1
:104D9000914600085D4B0008440200206802002094
:104DA00030B51F4B8BB005AA03F1100514461868E7
:104DB0005968083303C4AB422246F7D11B7810224E
:104DC0002370002101A807F027FA122200211548BC
:104DD00007F022FA102101A801F04CFD00281BDD8C
:104DE0000828B8BF082001AB09381A1800200D495F
:104DF00012F8013F0AAC04EB131403F00F0328333D
:104E00006B4414F8144C13F8143C013008280C704F
:104E10004B7001F10201EBD102480BB030BD00BF75
:104E20003AD20008671800202DE9F04F714B87B087
:104E300093F800B0BBF1000F03D06F4807B0BDE896
:104E4000F08F6D4C00264FF0011AB0463546B14642
:104E500023783BB9694B02349C42F3D10123654A64
:104E60001370EAE76378052B1BD8DFE803F08C03A7
:104E7000C18C1D39402304A88DF810B0ADF8123054
:104E80008DF814B005F0CDFB40B1082304A8ADF8AF
:104E9000123005F0C6FB08B1ADF812B0BDF8123003
:104EA000E37123781C44D3E7E378002BF9D1A3788E
:104EB0006BB108F101085FFA88F8F2E76B689C4271
:104EC00007D024354E4B9D42F8D30020B6E74D4D18
:104ED000F8E7AB68002BECD0414620469847E8E75E
:104EE000002DF2D000222B7F9A42EED2296AA078C0
:104EF00001EBC2010B79984201D00132F3E701279F
:104F0000E078FBB200F003008DF81400207994F8EB
:104F100005C040EA0C20ADF8120094F90200002808
:104F200026DA4FF0010C07F110000CFA00F010EA3D
:104F30000A0F24D143F080008DF8100004A8CDE9B9
:104F40000213019205F06DFBDDE90121039BB0B96D
:104F50009DF8102012F0800FA2700A714FF001022C
:104F60001DBF1033DBB29A40BA404AEA020A98E702
:104F70000120B84010EA0A0F01D11846DCE70137DA
:104F8000102FBDD1B9E7032E1AD1FFF709FF07464D
:104F900050B1FBF779FA024630B11028A8BF1022B1
:104FA0003946A01C07F02AF96FF002012378091B8B
:104FB000E21804EB5303D14213D50136F6B270E781
:104FC000002EF1D1B9F1000F3FF47FAFA4EB09033C
:104FD00089F80230C3F3072389F8033089F8048085
:104FE000EBE702F801BC13F8010902F8020DE2E751
:104FF000A14656E7661800208001002043020020E9
:105000006802002044020020094B00211A4610B516
:105010001C78844204D15C6814B102EB811010BD8D
:105020000131042903F14003F2D10020F7E700BF6A
:10503000CC0E00202DE9F34150F8283C04461033F3
:1050400010F82C6C0AD1036950F8202C980736D53B
:10505000D2B9590715D5002344F8283C54F8283C08
:1050600010330BD054E9077554F8148C06F0F3FE96
:1050700000284FD021462E4806F0D1FE02B0BDE8F0
:10508000F08143F004032361304654F8241C01AB43
:1050900005F0DDF810B16FF01503DDE7019A54F863
:1050A000243C134444F8243C54F8203C9B1A44F814
:1050B000203C54F81C3C134444F81C3CCEE73046DA
:1050C00054F8241C01AB01F081F80028E3D1019DC4
:1050D00054F8243C2B4444F8243C54F8203C5B1BFB
:1050E00044F8203C54F81C3C2B4444F81C3C002D54
:1050F000B1D0304605F0BFFAB5FBF0F303FB105515
:10510000002DA8D154F8203C002BA4D0304601F04B
:105110008BF8A3E744F8180CA4F1100003F014F87E
:10512000002DABD0424639463046A847A6E700BF1F
:10513000400B00204B1E012B73B506460D460FD8C1
:10514000FFF762FF044668B9012D09D101AB0122C6
:1051500030460DF1030101F039F8019B002BF5D128
:1051600002B070BD06F077FE04F12C0108B1012DEC
:1051700005D1084602B0BDE87040FFF75BBF0348A9
:1051800002B0BDE8704006F04ABE00BF400B0020F0
:105190002DE9F74F064615469846019105F09DF812
:1051A000044600285BD1EFF3118A102383F31288A1
:1051B000BFF36F8FDFF8ACB000220023584602F037
:1051C000E7FF70B9DFF8A090A70109EB84146368CA
:1051D00013F1100F14D10193584602F0B5FF019B53
:1051E00006E00134042C0BF1400BE5D16FF00B030A
:1051F0008AF31188BFF36F8F184603B0BDE8F08FB4
:10520000019B2061C4E902350C9B304663610D9B14
:1052100009F80760A3616FF00F03C4F83C80636076
:1052200005F029FA58B1304605F025FAB5FBF0F340
:1052300003FB10551DB1E36B43F00403E36318F067
:10524000020F07D007F12C010848494406F0E7FD9A
:105250000023CDE7304600F0E7FF0346C8E76FF0D4
:105260000F03C9E7E80E0020CC0E0020400B002001
:1052700010B5EFF31184102383F31288BFF36F8FFF
:10528000FFF7C2FE50B14368103307D16FF08B03B4
:1052900000F12C014360044806F0C1FD84F311883D
:1052A000BFF36F8F10BD00BF400B0020F8B5042581
:1052B00010270D4CEFF3118687F31288BFF36F8F21
:1052C0006368103307D16FF08B030848636004F103
:1052D0002C0106F0A4FD86F31188BFF36F8F013D0A
:1052E00004F14004E6D1F8BDCC0E0020400B0020B4
:1052F00070B50025094C0A4E3146204606F073FD74
:105300000122A4F110001146013506F030FD042DF4
:1053100004F14004F0D1002070BD00BFF80E002061
:105320003550000870B504460E46017915481546FB
:1053300004F0B0FF10B394F900206378002A16DB64
:10534000202B04D0222B0ED06FF085000AE02B68B2
:105350001A6840F8102C9A8820F80C2C9B7900F8D9
:105360000A3C002070BD638800F8093CF9E7212B56
:10537000EAD10723103828603360F2E76FF012009B
:10538000F0E700BFCC0F0020014608B5034804F049
:105390008EFF10B1012300F8073C08BDCC0F0020A0
:1053A0000123016981F84B300B6833B191F8493022
:1053B0001BB10248083106F032BD7047400B002097
:1053C0000123016981F84A300B6833B191F8483004
:1053D0001BB10248083106F022BD7047400B002087
:1053E000012370B582F8483013680D4614463BB16E
:1053F00092F84A3023B10E4802F1080106F00FFD81
:10540000D4F890301A699B689A4205D17DB904F1AD
:1054100018014FF47A7204E004F11801002DF8D05D
:105420000022BDE870400023014803F00BB870BDB6
:10543000400B002070B5056995F89E00E0B195F825
:105440009F30D3B985F84830EFF31186102383F3EA
:105450001288BFF36F8FD5F8900004F078FE0446F1
:1054600086F31188BFF36F8F00220023044805F1F3
:10547000180102F0E7FF204670BD0020FCE700BFE6
:10548000400B0020002103460C4AA0F84810106889
:1054900083F89C10C3F8940090889279A3F8980040
:1054A00083F89A2083F89B104022A3F89E1083F87B
:1054B000A01003F14C0006F0AFBE00BF38C60008D4
:1054C000F0B5D0F88C3004465B6885B01B6A1F7D50
:1054D000384604F002FF0646F8B994F88630E3B186
:1054E0004FF48062A06F03A904F050FE0546A0B1FE
:1054F0008306A4F1180384F830600193084B08BFB9
:1055000000F1FF35039900932A4602233846FFF73E
:105510003FFE2946A06F04F055FE05B0F0BD00BF68
:10552000E1530008002310B50469C4F8A8300C4BFF
:10553000C4F8A400596804F1A80269B9C3E90022BB
:1055400004F10800074906F04EFC04F11800064972
:1055500006F075FC002010BD0A605A60F0E700BF3D
:10556000CC0F002005A30008C154000830B54FF44B
:1055700000334268056942F2A10085B0CDE901031C
:10558000002385F89D30106AADF80C100A220079CE
:1055900001A904F05CFE054C95F89D3023B901206B
:1055A00006F090FB013CF7D105B030BDA1860100AB
:1055B000002373B5102504698DF8071084F848306E
:1055C000EFF3118685F31288BFF36F8F0122D4F8B1
:1055D00090000DF1070104F0BAFD86F31188BFF3C6
:1055E0006F8F01280AD006F036FC10B994F8A1306C
:1055F0006BB9094B1A780AB901221A700A220023E2
:1056000004F11801054802F01DFF02B070BD002131
:105610000A2003F027FAD3E779180020400B002076
:1056200037B514460A1E054620DDD4F88C0004F177
:105630004C0104F08CFD012384F8493023683BB110
:1056400094F84B3023B1114804F1080106F0E7FB50
:10565000D4F88C104B684A699A1ACB699B1A3F2B75
:1056600004D8012384F8A03003B030BD94F89E30F4
:10567000002BF9D0064B40220093284601230194C9
:1056800004F14C01FFF784FDEEE700BF400B002062
:1056900021560008F7B50D4601461D4804F0EFFD00
:1056A000044610B3064656F8A439691E5F680529FA
:1056B0001BD8DFE801F01C1A031C222610F8061C78
:1056C00099B9012300F8063C3B6A3246187BFFF784
:1056D000A7FF14F85C2C42B93B6A1146187D0D4BAC
:1056E000019600930223FFF753FD03B0F0BD30464F
:1056F00003B0BDE8F040FFF7C5BE012304F8053C48
:10570000F3E710F8053C002BEFD00023F6E700BFCD
:10571000CC0F0020E153000837B50024084D4FF0AE
:10572000FF334FF4806228460649009402F04CFE95
:105730000549284606F095FB204603B030BD00BF62
:10574000400B0020801C002059D2000808B5034BF4
:105750001B689847BDE8084000F026B80C010020FF
:1057600030BFFFF7FDBF00BF2DE9F04105460B4EEE
:10577000DFF82C80324606EB0807CC1B204609498F
:1057800006F03CFDA01942460021083C06F044FD0D
:105790006C6607F10800BDE8F08100BF0000000062
:1057A00008000000E8C50008074A936893F90E1046
:1057B000002907DB526993421FBF044A536843F034
:1057C00080535360704700BF2C18002000ED00E0AC
:1057D000134B9A6A12F0007F9A6A14BF1E201D2094
:1057E00012F0807F9A6A18BF1F2012F4002F9A6A65
:1057F00018BF212012F4802F9A6A18BF222012F4B9
:10580000003F9A6A18BF232012F4803F9A6A18BF9B
:1058100024206FEA02426FEA12429A62704700BF88
:1058200000ED00E010B5164B9A6A9C6A12F4805F96
:1058300014BF1722162214F4006F9C6A18BF182296
:10584000A40509D59A6B9A6A120404D518B19A6A0C
:1058500022F400429A621922094B986A10F4806F70
:10586000986A18BF1A2210F4807F986A40F47F402B
:1058700098624FF000030CBF10461B200B7010BD48
:1058800000ED00E010B5154B0246986A9C6A10F0D6
:10589000100F14BF1120102014F0080F9C6A18BFBD
:1058A0001220A40709D5586B986A000604D51AB1CE
:1058B0009A6A22F080029A621320084B9A6A12F0C8
:1058C000010F9A6A18BF1420D20658BF9A6A9A6AC2
:1058D00042F0FF029A6200230B7010BD00ED00E061
:1058E000F0B5474B04465B6800258BB0C3F3080353
:1058F00085F31188BFF36F8F02F07F40B0F17F4FC7
:1059000011D102F00C0008280DD010074CBF0C4636
:1059100001250022033B8DF80720032B05D8DFE883
:1059200003F02462665F2C46F3E700239DF807200E
:10593000CAB902AE04F12007324620686168083413
:1059400003C2BC421646F7D1099A002D53D0C2F3C8
:10595000080121B96FEA52226FEA422209921846E1
:1059600002A904F0E3FD0BB0F0BD254BDA6A910704
:10597000DBD4DA6A002AD8DBDA6A5200D5D55A6954
:10598000A16942F480725A61BFF34F8FBFF36F8FEA
:105990005A6931F8021C22F480725A61BFF34F8FAA
:1059A000BFF36F8F4DF60272914209D09A6AD2B25C
:1059B00042B101200DF10701FFF764FF0346B5E78F
:1059C0002368B3E79A6A12F47F4F05D001200DF1E6
:1059D0000701FFF727FFF1E79B6AB3F5803FA4D3E8
:1059E000FFF7F6FEEAE700200DF10701E4E70020EB
:1059F0000DF10701EDE722F4FF7222F00102ADE79D
:105A000000ED00E0024A536943F010035361704710
:105A100000ED00E0EFF30880EFF3098101B5724675
:105A2000FFF75EFF01BD00BF102080F3118808481A
:105A30004FF40061401880F30988EFF314800221CD
:105A4000084380F31488BFF36F8F00F0B3F80000B1
:105A500080200020084B9B6883420BD1EFF3058325
:105A600043B1064B5A6842F080525A605A6A22F497
:105A700000425A6206F0ADBA2C18002000ED00E09A
:105A80006FF00A01084A9368D966084998664B681E
:105A900043F080534B60002383F31188BFF36F8F73
:105AA0009368D86E704700BF2C18002000ED00E00E
:105AB000EFF31183102383F31288BFF36F8F4FF03E
:105AC0000061084A53699360074A5160596E074A5A
